{
  "_format": "hh-sol-artifact-1",
  "contractName": "StableCoinStaking",
  "sourceName": "contracts/FixedAPRStaking.sol",
  "abi": [
    {
      "anonymous": false,
      "inputs": [
        {
          "indexed": false,
          "internalType": "address",
          "name": "previousAdmin",
          "type": "address"
        },
        {
          "indexed": false,
          "internalType": "address",
          "name": "newAdmin",
          "type": "address"
        }
      ],
      "name": "AdminChanged",
      "type": "event"
    },
    {
      "anonymous": false,
      "inputs": [
        {
          "indexed": true,
          "internalType": "address",
          "name": "beacon",
          "type": "address"
        }
      ],
      "name": "BeaconUpgraded",
      "type": "event"
    },
    {
      "anonymous": false,
      "inputs": [
        {
          "indexed": false,
          "internalType": "uint8",
          "name": "version",
          "type": "uint8"
        }
      ],
      "name": "Initialized",
      "type": "event"
    },
    {
      "anonymous": false,
      "inputs": [
        {
          "indexed": true,
          "internalType": "address",
          "name": "previousOwner",
          "type": "address"
        },
        {
          "indexed": true,
          "internalType": "address",
          "name": "newOwner",
          "type": "address"
        }
      ],
      "name": "OwnershipTransferred",
      "type": "event"
    },
    {
      "anonymous": false,
      "inputs": [
        {
          "indexed": true,
          "internalType": "address",
          "name": "implementation",
          "type": "address"
        }
      ],
      "name": "Upgraded",
      "type": "event"
    },
    {
      "inputs": [
        {
          "internalType": "uint256",
          "name": "",
          "type": "uint256"
        }
      ],
      "name": "bonusRewardRates",
      "outputs": [
        {
          "internalType": "uint256",
          "name": "",
          "type": "uint256"
        }
      ],
      "stateMutability": "view",
      "type": "function"
    },
    {
      "inputs": [],
      "name": "chainlinkAggregatorAddress",
      "outputs": [
        {
          "internalType": "contract AggregatorV3Interface",
          "name": "",
          "type": "address"
        }
      ],
      "stateMutability": "view",
      "type": "function"
    },
    {
      "inputs": [],
      "name": "claimERC20RewardTokens",
      "outputs": [],
      "stateMutability": "nonpayable",
      "type": "function"
    },
    {
      "inputs": [
        {
          "internalType": "uint256",
          "name": "_amount",
          "type": "uint256"
        }
      ],
      "name": "depositInPool",
      "outputs": [],
      "stateMutability": "nonpayable",
      "type": "function"
    },
    {
      "inputs": [
        {
          "internalType": "address",
          "name": "_userAddress",
          "type": "address"
        }
      ],
      "name": "getPendingReward",
      "outputs": [
        {
          "internalType": "uint256",
          "name": "",
          "type": "uint256"
        }
      ],
      "stateMutability": "view",
      "type": "function"
    },
    {
      "inputs": [
        {
          "internalType": "contract IERC20Upgradeable",
          "name": "_rewardERC20Token",
          "type": "address"
        },
        {
          "internalType": "contract IERC20Upgradeable",
          "name": "_stakedStableCoin",
          "type": "address"
        },
        {
          "internalType": "contract AggregatorV3Interface",
          "name": "_chainlinkAggregatorAddress",
          "type": "address"
        },
        {
          "internalType": "uint256",
          "name": "_stakingEndTimestamp",
          "type": "uint256"
        }
      ],
      "name": "initialize",
      "outputs": [],
      "stateMutability": "nonpayable",
      "type": "function"
    },
    {
      "inputs": [],
      "name": "owner",
      "outputs": [
        {
          "internalType": "address",
          "name": "",
          "type": "address"
        }
      ],
      "stateMutability": "view",
      "type": "function"
    },
    {
      "inputs": [],
      "name": "proxiableUUID",
      "outputs": [
        {
          "internalType": "bytes32",
          "name": "",
          "type": "bytes32"
        }
      ],
      "stateMutability": "view",
      "type": "function"
    },
    {
      "inputs": [],
      "name": "renounceOwnership",
      "outputs": [],
      "stateMutability": "nonpayable",
      "type": "function"
    },
    {
      "inputs": [],
      "name": "rewardERC20Token",
      "outputs": [
        {
          "internalType": "contract IERC20Upgradeable",
          "name": "",
          "type": "address"
        }
      ],
      "stateMutability": "view",
      "type": "function"
    },
    {
      "inputs": [
        {
          "internalType": "uint256",
          "name": "",
          "type": "uint256"
        }
      ],
      "name": "rewardRates",
      "outputs": [
        {
          "internalType": "uint256",
          "name": "",
          "type": "uint256"
        }
      ],
      "stateMutability": "view",
      "type": "function"
    },
    {
      "inputs": [],
      "name": "stakedStableCoin",
      "outputs": [
        {
          "internalType": "contract IERC20Upgradeable",
          "name": "",
          "type": "address"
        }
      ],
      "stateMutability": "view",
      "type": "function"
    },
    {
      "inputs": [],
      "name": "stakingEndTimestamp",
      "outputs": [
        {
          "internalType": "uint256",
          "name": "",
          "type": "uint256"
        }
      ],
      "stateMutability": "view",
      "type": "function"
    },
    {
      "inputs": [],
      "name": "totalStakedInPool",
      "outputs": [
        {
          "internalType": "uint256",
          "name": "",
          "type": "uint256"
        }
      ],
      "stateMutability": "view",
      "type": "function"
    },
    {
      "inputs": [
        {
          "internalType": "address",
          "name": "newOwner",
          "type": "address"
        }
      ],
      "name": "transferOwnership",
      "outputs": [],
      "stateMutability": "nonpayable",
      "type": "function"
    },
    {
      "inputs": [
        {
          "internalType": "address",
          "name": "newImplementation",
          "type": "address"
        }
      ],
      "name": "upgradeTo",
      "outputs": [],
      "stateMutability": "nonpayable",
      "type": "function"
    },
    {
      "inputs": [
        {
          "internalType": "address",
          "name": "newImplementation",
          "type": "address"
        },
        {
          "internalType": "bytes",
          "name": "data",
          "type": "bytes"
        }
      ],
      "name": "upgradeToAndCall",
      "outputs": [],
      "stateMutability": "payable",
      "type": "function"
    },
    {
      "inputs": [
        {
          "internalType": "address",
          "name": "",
          "type": "address"
        }
      ],
      "name": "userInfo",
      "outputs": [
        {
          "internalType": "uint256",
          "name": "amountStaked",
          "type": "uint256"
        },
        {
          "internalType": "uint256",
          "name": "depositDuration",
          "type": "uint256"
        },
        {
          "internalType": "uint256",
          "name": "rewardEarned",
          "type": "uint256"
        },
        {
          "internalType": "uint256",
          "name": "lastRewardWithdrawl",
          "type": "uint256"
        }
      ],
      "stateMutability": "view",
      "type": "function"
    },
    {
      "inputs": [
        {
          "internalType": "uint256",
          "name": "_amount",
          "type": "uint256"
        }
      ],
      "name": "withdrawFromPool",
      "outputs": [],
      "stateMutability": "nonpayable",
      "type": "function"
    }
  ],
  "bytecode": "0x60a06040523073ffffffffffffffffffffffffffffffffffffffff1660809073ffffffffffffffffffffffffffffffffffffffff1660601b81525034801561004657600080fd5b5060805160601c6130e4610081600039600081816108100152818161089f015281816109fc01528181610a8b0152610b3b01526130e46000f3fe6080604052600436106101145760003560e01c806355421aef116100a0578063cf756fdf11610064578063cf756fdf1461035d578063d008058b14610386578063f2caeb1e146103c3578063f2fde38b14610400578063f41ac47f1461042957610114565b806355421aef146102ae578063715018a6146102d9578063800b9e52146102f05780638da5cb5b14610307578063c6ccf5421461033257610114565b80633659cfe6116100e75780633659cfe6146101d65780634c8136eb146101ff5780634df9d6ba1461022a5780634f1ef2861461026757806352d1902d1461028357610114565b80631959a002146101195780631d95e7f1146101595780632c2f31ff1461018257806330fc43ed146101ad575b600080fd5b34801561012557600080fd5b50610140600480360381019061013b91906120ca565b610454565b6040516101509493929190612802565b60405180910390f35b34801561016557600080fd5b50610180600480360381019061017b91906121fc565b610484565b005b34801561018e57600080fd5b50610197610639565b6040516101a491906125ef565b60405180910390f35b3480156101b957600080fd5b506101d460048036038101906101cf91906121fc565b61065f565b005b3480156101e257600080fd5b506101fd60048036038101906101f891906120ca565b61080e565b005b34801561020b57600080fd5b506102146109bd565b60405161022191906125d4565b60405180910390f35b34801561023657600080fd5b50610251600480360381019061024c91906120ca565b6109e3565b60405161025e91906127e7565b60405180910390f35b610281600480360381019061027c91906120f3565b6109fa565b005b34801561028f57600080fd5b50610298610b37565b6040516102a591906125b9565b60405180910390f35b3480156102ba57600080fd5b506102c3610bf0565b6040516102d091906127e7565b60405180910390f35b3480156102e557600080fd5b506102ee610bf6565b005b3480156102fc57600080fd5b50610305610c7e565b005b34801561031357600080fd5b5061031c610c88565b604051610329919061253e565b60405180910390f35b34801561033e57600080fd5b50610347610cb2565b60405161035491906127e7565b60405180910390f35b34801561036957600080fd5b50610384600480360381019061037f9190612199565b610cb8565b005b34801561039257600080fd5b506103ad60048036038101906103a891906121fc565b610e32565b6040516103ba91906127e7565b60405180910390f35b3480156103cf57600080fd5b506103ea60048036038101906103e591906121fc565b610e4a565b6040516103f791906127e7565b60405180910390f35b34801561040c57600080fd5b50610427600480360381019061042291906120ca565b610e62565b005b34801561043557600080fd5b5061043e610f5a565b60405161044b91906125ef565b60405180910390f35b60d26020528060005260406000206000915090508060000154908060010154908060020154908060030154905084565b600060d260003373ffffffffffffffffffffffffffffffffffffffff1673ffffffffffffffffffffffffffffffffffffffff16815260200190815260200160002090506000821161050a576040517f08c379a0000000000000000000000000000000000000000000000000000000008152600401610501906127c7565b60405180910390fd5b42816001018190555060ce60009054906101000a900473ffffffffffffffffffffffffffffffffffffffff1673ffffffffffffffffffffffffffffffffffffffff166323b872dd3330856040518463ffffffff1660e01b815260040161057293929190612559565b602060405180830381600087803b15801561058c57600080fd5b505af11580156105a0573d6000803e3d6000fd5b505050506040513d601f19601f820116820180604052508101906105c49190612147565b506105cd610f80565b6105e48282600001546110b690919063ffffffff16565b81600001819055506106018260ca546110b690919063ffffffff16565b60ca8190555061061b3360cb6110cc90919063ffffffff16565b610635576106333360cb6110fc90919063ffffffff16565b505b5050565b60cd60009054906101000a900473ffffffffffffffffffffffffffffffffffffffff1681565b600060d260003373ffffffffffffffffffffffffffffffffffffffff1673ffffffffffffffffffffffffffffffffffffffff168152602001908152602001600020905080600001548211156106e9576040517f08c379a00000000000000000000000000000000000000000000000000000000081526004016106e0906126a7565b60405180910390fd5b6106f1610f80565b60ce60009054906101000a900473ffffffffffffffffffffffffffffffffffffffff1673ffffffffffffffffffffffffffffffffffffffff1663a9059cbb33846040518363ffffffff1660e01b815260040161074e929190612590565b602060405180830381600087803b15801561076857600080fd5b505af115801561077c573d6000803e3d6000fd5b505050506040513d601f19601f820116820180604052508101906107a09190612147565b506107b882826000015461112c90919063ffffffff16565b81600001819055506107d58260ca5461112c90919063ffffffff16565b60ca819055506107ef3360cb6110cc90919063ffffffff16565b1561080a576108083360cb61114290919063ffffffff16565b505b5050565b7f000000000000000000000000000000000000000000000000000000000000000073ffffffffffffffffffffffffffffffffffffffff163073ffffffffffffffffffffffffffffffffffffffff16141561089d576040517f08c379a000000000000000000000000000000000000000000000000000000000815260040161089490612667565b60405180910390fd5b7f000000000000000000000000000000000000000000000000000000000000000073ffffffffffffffffffffffffffffffffffffffff166108dc611172565b73ffffffffffffffffffffffffffffffffffffffff1614610932576040517f08c379a000000000000000000000000000000000000000000000000000000000815260040161092990612687565b60405180910390fd5b61093b816111c9565b6109ba81600067ffffffffffffffff811115610980577f4e487b7100000000000000000000000000000000000000000000000000000000600052604160045260246000fd5b6040519080825280601f01601f1916602001820160405280156109b25781602001600182028036833780820191505090505b506000611248565b50565b60cf60009054906101000a900473ffffffffffffffffffffffffffffffffffffffff1681565b6000806109ef836113c5565b905080915050919050565b7f000000000000000000000000000000000000000000000000000000000000000073ffffffffffffffffffffffffffffffffffffffff163073ffffffffffffffffffffffffffffffffffffffff161415610a89576040517f08c379a0000000000000000000000000000000000000000000000000000000008152600401610a8090612667565b60405180910390fd5b7f000000000000000000000000000000000000000000000000000000000000000073ffffffffffffffffffffffffffffffffffffffff16610ac8611172565b73ffffffffffffffffffffffffffffffffffffffff1614610b1e576040517f08c379a0000000000000000000000000000000000000000000000000000000008152600401610b1590612687565b60405180910390fd5b610b27826111c9565b610b3382826001611248565b5050565b60007f000000000000000000000000000000000000000000000000000000000000000073ffffffffffffffffffffffffffffffffffffffff163073ffffffffffffffffffffffffffffffffffffffff1614610bc7576040517f08c379a0000000000000000000000000000000000000000000000000000000008152600401610bbe906126c7565b60405180910390fd5b7f360894a13ba1a3210667c828492db98dca3e2076cc3735a920a3ca505d382bbc60001b905090565b60ca5481565b610bfe61168e565b73ffffffffffffffffffffffffffffffffffffffff16610c1c610c88565b73ffffffffffffffffffffffffffffffffffffffff1614610c72576040517f08c379a0000000000000000000000000000000000000000000000000000000008152600401610c6990612767565b60405180910390fd5b610c7c6000611696565b565b610c86610f80565b565b6000603360009054906101000a900473ffffffffffffffffffffffffffffffffffffffff16905090565b60c95481565b6000610cc4600161175c565b90508015610ce8576001600060016101000a81548160ff0219169083151502179055505b8460cd60006101000a81548173ffffffffffffffffffffffffffffffffffffffff021916908373ffffffffffffffffffffffffffffffffffffffff1602179055508360ce60006101000a81548173ffffffffffffffffffffffffffffffffffffffff021916908373ffffffffffffffffffffffffffffffffffffffff1602179055508260cf60006101000a81548173ffffffffffffffffffffffffffffffffffffffff021916908373ffffffffffffffffffffffffffffffffffffffff1602179055508160c981905550610dba61184c565b610dc261189e565b610dca6118ef565b610dd2611948565b8015610e2b5760008060016101000a81548160ff0219169083151502179055507f7f26b83ff96e1f2b6a682f133852f6798a09c465da95921460cefb38474024986001604051610e22919061260a565b60405180910390a15b5050505050565b60d16020528060005260406000206000915090505481565b60d06020528060005260406000206000915090505481565b610e6a61168e565b73ffffffffffffffffffffffffffffffffffffffff16610e88610c88565b73ffffffffffffffffffffffffffffffffffffffff1614610ede576040517f08c379a0000000000000000000000000000000000000000000000000000000008152600401610ed590612767565b60405180910390fd5b600073ffffffffffffffffffffffffffffffffffffffff168173ffffffffffffffffffffffffffffffffffffffff161415610f4e576040517f08c379a0000000000000000000000000000000000000000000000000000000008152600401610f4590612647565b60405180910390fd5b610f5781611696565b50565b60ce60009054906101000a900473ffffffffffffffffffffffffffffffffffffffff1681565b600060d260003373ffffffffffffffffffffffffffffffffffffffff1673ffffffffffffffffffffffffffffffffffffffff16815260200190815260200160002090506000610fce336113c5565b905060008111156110a95760cd60009054906101000a900473ffffffffffffffffffffffffffffffffffffffff1673ffffffffffffffffffffffffffffffffffffffff1663a9059cbb33836040518363ffffffff1660e01b8152600401611036929190612590565b602060405180830381600087803b15801561105057600080fd5b505af1158015611064573d6000803e3d6000fd5b505050506040513d601f19601f820116820180604052508101906110889190612147565b506110a08183600201546110b690919063ffffffff16565b82600201819055505b4282600301819055505050565b600081836110c491906128cf565b905092915050565b60006110f4836000018373ffffffffffffffffffffffffffffffffffffffff1660001b611999565b905092915050565b6000611124836000018373ffffffffffffffffffffffffffffffffffffffff1660001b6119bc565b905092915050565b6000818361113a91906129b0565b905092915050565b600061116a836000018373ffffffffffffffffffffffffffffffffffffffff1660001b611a2c565b905092915050565b60006111a07f360894a13ba1a3210667c828492db98dca3e2076cc3735a920a3ca505d382bbc60001b611bb2565b60000160009054906101000a900473ffffffffffffffffffffffffffffffffffffffff16905090565b6111d161168e565b73ffffffffffffffffffffffffffffffffffffffff166111ef610c88565b73ffffffffffffffffffffffffffffffffffffffff1614611245576040517f08c379a000000000000000000000000000000000000000000000000000000000815260040161123c90612767565b60405180910390fd5b50565b6112747f4910fdfa16fed3260ed0e7147f7cc6da11a60208b5b9406d12a635614ffd914360001b611bbc565b60000160009054906101000a900460ff16156112985761129383611bc6565b6113c0565b8273ffffffffffffffffffffffffffffffffffffffff166352d1902d6040518163ffffffff1660e01b815260040160206040518083038186803b1580156112de57600080fd5b505afa92505050801561130f57506040513d601f19601f8201168201806040525081019061130c9190612170565b60015b61134e576040517f08c379a000000000000000000000000000000000000000000000000000000000815260040161134590612727565b60405180910390fd5b7f360894a13ba1a3210667c828492db98dca3e2076cc3735a920a3ca505d382bbc60001b81146113b3576040517f08c379a00000000000000000000000000000000000000000000000000000000081526004016113aa906126e7565b60405180910390fd5b506113bf838383611c7f565b5b505050565b60008060d260003373ffffffffffffffffffffffffffffffffffffffff1673ffffffffffffffffffffffffffffffffffffffff168152602001908152602001600020905061141d8360cb6110cc90919063ffffffff16565b61142b576000915050611689565b600081600001541415611442576000915050611689565b600061149960d260003373ffffffffffffffffffffffffffffffffffffffff1673ffffffffffffffffffffffffffffffffffffffff168152602001908152602001600020600301544261112c90919063ffffffff16565b905060008260000154905060006114d66305f5e1006114c86114b9611cab565b85611d5b90919063ffffffff16565b611d7190919063ffffffff16565b905060006114f361070886600101546110b690919063ffffffff16565b42116115145760d0600080815260200190815260200160002054905061158d565b61152d61070886600101546110b690919063ffffffff16565b42118015611553575061154f612a3086600101546110b690919063ffffffff16565b4211155b156115745760d060006001815260200190815260200160002054905061158c565b60d06000600281526020019081526020016000205490505b5b606482106115c2576115bb60d1600080815260200190815260200160002054826110b690919063ffffffff16565b905061162e565b6101f482106115f9576115f260d160006001815260200190815260200160002054826110b690919063ffffffff16565b905061162d565b6103e8821061162c5761162960d160006002815260200190815260200160002054826110b690919063ffffffff16565b90505b5b5b600061167d61271061166f60c95461166189611653888b611d5b90919063ffffffff16565b611d5b90919063ffffffff16565b611d7190919063ffffffff16565b611d7190919063ffffffff16565b90508096505050505050505b919050565b600033905090565b6000603360009054906101000a900473ffffffffffffffffffffffffffffffffffffffff16905081603360006101000a81548173ffffffffffffffffffffffffffffffffffffffff021916908373ffffffffffffffffffffffffffffffffffffffff1602179055508173ffffffffffffffffffffffffffffffffffffffff168173ffffffffffffffffffffffffffffffffffffffff167f8be0079c531659141344cd1fd0a4f28419497f9722a3daafe3b4186f6b6457e060405160405180910390a35050565b60008060019054906101000a900460ff16156117d35760018260ff1614801561178b575061178930611d87565b155b6117ca576040517f08c379a00000000000000000000000000000000000000000000000000000000081526004016117c190612707565b60405180910390fd5b60009050611847565b8160ff1660008054906101000a900460ff1660ff1610611828576040517f08c379a000000000000000000000000000000000000000000000000000000000815260040161181f90612707565b60405180910390fd5b816000806101000a81548160ff021916908360ff160217905550600190505b919050565b6101f460d06000808152602001908152602001600020819055506103e860d0600060018152602001908152602001600020819055506105dc60d060006002815260200190815260200160002081905550565b60c860d16000808152602001908152602001600020819055506101f460d1600060018152602001908152602001600020819055506103e860d160006002815260200190815260200160002081905550565b600060019054906101000a900460ff1661193e576040517f08c379a0000000000000000000000000000000000000000000000000000000008152600401611935906127a7565b60405180910390fd5b611946611daa565b565b600060019054906101000a900460ff16611997576040517f08c379a000000000000000000000000000000000000000000000000000000000815260040161198e906127a7565b60405180910390fd5b565b600080836001016000848152602001908152602001600020541415905092915050565b60006119c88383611999565b611a21578260000182908060018154018082558091505060019003906000526020600020016000909190919091505582600001805490508360010160008481526020019081526020016000208190555060019050611a26565b600090505b92915050565b60008083600101600084815260200190815260200160002054905060008114611ba6576000600182611a5e91906129b0565b9050600060018660000180549050611a7691906129b0565b9050818114611b31576000866000018281548110611abd577f4e487b7100000000000000000000000000000000000000000000000000000000600052603260045260246000fd5b9060005260206000200154905080876000018481548110611b07577f4e487b7100000000000000000000000000000000000000000000000000000000600052603260045260246000fd5b90600052602060002001819055508387600101600083815260200190815260200160002081905550505b85600001805480611b6b577f4e487b7100000000000000000000000000000000000000000000000000000000600052603160045260246000fd5b600190038181906000526020600020016000905590558560010160008681526020019081526020016000206000905560019350505050611bac565b60009150505b92915050565b6000819050919050565b6000819050919050565b611bcf81611d87565b611c0e576040517f08c379a0000000000000000000000000000000000000000000000000000000008152600401611c0590612747565b60405180910390fd5b80611c3b7f360894a13ba1a3210667c828492db98dca3e2076cc3735a920a3ca505d382bbc60001b611bb2565b60000160006101000a81548173ffffffffffffffffffffffffffffffffffffffff021916908373ffffffffffffffffffffffffffffffffffffffff16021790555050565b611c8883611e0b565b600082511180611c955750805b15611ca657611ca48383611e5a565b505b505050565b60008060cf60009054906101000a900473ffffffffffffffffffffffffffffffffffffffff1673ffffffffffffffffffffffffffffffffffffffff1663feaf968c6040518163ffffffff1660e01b815260040160a06040518083038186803b158015611d1657600080fd5b505afa158015611d2a573d6000803e3d6000fd5b505050506040513d601f19601f82011682018060405250810190611d4e9190612225565b5050509150508091505090565b60008183611d699190612956565b905092915050565b60008183611d7f9190612925565b905092915050565b6000808273ffffffffffffffffffffffffffffffffffffffff163b119050919050565b600060019054906101000a900460ff16611df9576040517f08c379a0000000000000000000000000000000000000000000000000000000008152600401611df0906127a7565b60405180910390fd5b611e09611e0461168e565b611696565b565b611e1481611bc6565b8073ffffffffffffffffffffffffffffffffffffffff167fbc7cd75a20ee27fd9adebab32041f755214dbc6bffa90cc0225b39da2e5c2d3b60405160405180910390a250565b6060611e6583611d87565b611ea4576040517f08c379a0000000000000000000000000000000000000000000000000000000008152600401611e9b90612787565b60405180910390fd5b6000808473ffffffffffffffffffffffffffffffffffffffff1684604051611ecc9190612527565b600060405180830381855af49150503d8060008114611f07576040519150601f19603f3d011682016040523d82523d6000602084013e611f0c565b606091505b5091509150611f34828260405180606001604052806027815260200161308860279139611f3e565b9250505092915050565b60608315611f4e57829050611f9e565b600083511115611f615782518084602001fd5b816040517f08c379a0000000000000000000000000000000000000000000000000000000008152600401611f959190612625565b60405180910390fd5b9392505050565b6000611fb8611fb38461286c565b612847565b905082815260208101848484011115611fd057600080fd5b611fdb848285612ae1565b509392505050565b600081359050611ff281612fcf565b92915050565b60008151905061200781612fe6565b92915050565b60008151905061201c81612ffd565b92915050565b600082601f83011261203357600080fd5b8135612043848260208601611fa5565b91505092915050565b60008135905061205b81613014565b92915050565b6000813590506120708161302b565b92915050565b60008151905061208581613042565b92915050565b60008135905061209a81613059565b92915050565b6000815190506120af81613059565b92915050565b6000815190506120c481613070565b92915050565b6000602082840312156120dc57600080fd5b60006120ea84828501611fe3565b91505092915050565b6000806040838503121561210657600080fd5b600061211485828601611fe3565b925050602083013567ffffffffffffffff81111561213157600080fd5b61213d85828601612022565b9150509250929050565b60006020828403121561215957600080fd5b600061216784828501611ff8565b91505092915050565b60006020828403121561218257600080fd5b60006121908482850161200d565b91505092915050565b600080600080608085870312156121af57600080fd5b60006121bd87828801612061565b94505060206121ce87828801612061565b93505060406121df8782880161204c565b92505060606121f08782880161208b565b91505092959194509250565b60006020828403121561220e57600080fd5b600061221c8482850161208b565b91505092915050565b600080600080600060a0868803121561223d57600080fd5b600061224b888289016120b5565b955050602061225c88828901612076565b945050604061226d888289016120a0565b935050606061227e888289016120a0565b925050608061228f888289016120b5565b9150509295509295909350565b6122a5816129e4565b82525050565b6122b481612a02565b82525050565b60006122c58261289d565b6122cf81856128b3565b93506122df818560208601612af0565b80840191505092915050565b6122f481612a87565b82525050565b61230381612aab565b82525050565b61231281612acf565b82525050565b6000612323826128a8565b61232d81856128be565b935061233d818560208601612af0565b61234681612be1565b840191505092915050565b600061235e6026836128be565b915061236982612bf2565b604082019050919050565b6000612381602c836128be565b915061238c82612c41565b604082019050919050565b60006123a4602c836128be565b91506123af82612c90565b604082019050919050565b60006123c76040836128be565b91506123d282612cdf565b604082019050919050565b60006123ea6038836128be565b91506123f582612d2e565b604082019050919050565b600061240d6029836128be565b915061241882612d7d565b604082019050919050565b6000612430602e836128be565b915061243b82612dcc565b604082019050919050565b6000612453602e836128be565b915061245e82612e1b565b604082019050919050565b6000612476602d836128be565b915061248182612e6a565b604082019050919050565b60006124996020836128be565b91506124a482612eb9565b602082019050919050565b60006124bc6026836128be565b91506124c782612ee2565b604082019050919050565b60006124df602b836128be565b91506124ea82612f31565b604082019050919050565b60006125026036836128be565b915061250d82612f80565b604082019050919050565b61252181612a5a565b82525050565b600061253382846122ba565b915081905092915050565b6000602082019050612553600083018461229c565b92915050565b600060608201905061256e600083018661229c565b61257b602083018561229c565b6125886040830184612518565b949350505050565b60006040820190506125a5600083018561229c565b6125b26020830184612518565b9392505050565b60006020820190506125ce60008301846122ab565b92915050565b60006020820190506125e960008301846122eb565b92915050565b600060208201905061260460008301846122fa565b92915050565b600060208201905061261f6000830184612309565b92915050565b6000602082019050818103600083015261263f8184612318565b905092915050565b6000602082019050818103600083015261266081612351565b9050919050565b6000602082019050818103600083015261268081612374565b9050919050565b600060208201905081810360008301526126a081612397565b9050919050565b600060208201905081810360008301526126c0816123ba565b9050919050565b600060208201905081810360008301526126e0816123dd565b9050919050565b6000602082019050818103600083015261270081612400565b9050919050565b6000602082019050818103600083015261272081612423565b9050919050565b6000602082019050818103600083015261274081612446565b9050919050565b6000602082019050818103600083015261276081612469565b9050919050565b600060208201905081810360008301526127808161248c565b9050919050565b600060208201905081810360008301526127a0816124af565b9050919050565b600060208201905081810360008301526127c0816124d2565b9050919050565b600060208201905081810360008301526127e0816124f5565b9050919050565b60006020820190506127fc6000830184612518565b92915050565b60006080820190506128176000830187612518565b6128246020830186612518565b6128316040830185612518565b61283e6060830184612518565b95945050505050565b6000612851612862565b905061285d8282612b23565b919050565b6000604051905090565b600067ffffffffffffffff82111561288757612886612bb2565b5b61289082612be1565b9050602081019050919050565b600081519050919050565b600081519050919050565b600081905092915050565b600082825260208201905092915050565b60006128da82612a5a565b91506128e583612a5a565b9250827fffffffffffffffffffffffffffffffffffffffffffffffffffffffffffffffff0382111561291a57612919612b54565b5b828201905092915050565b600061293082612a5a565b915061293b83612a5a565b92508261294b5761294a612b83565b5b828204905092915050565b600061296182612a5a565b915061296c83612a5a565b9250817fffffffffffffffffffffffffffffffffffffffffffffffffffffffffffffffff04831182151516156129a5576129a4612b54565b5b828202905092915050565b60006129bb82612a5a565b91506129c683612a5a565b9250828210156129d9576129d8612b54565b5b828203905092915050565b60006129ef82612a3a565b9050919050565b60008115159050919050565b6000819050919050565b6000612a17826129e4565b9050919050565b6000612a29826129e4565b9050919050565b6000819050919050565b600073ffffffffffffffffffffffffffffffffffffffff82169050919050565b6000819050919050565b600060ff82169050919050565b600069ffffffffffffffffffff82169050919050565b6000612a9282612a99565b9050919050565b6000612aa482612a3a565b9050919050565b6000612ab682612abd565b9050919050565b6000612ac882612a3a565b9050919050565b6000612ada82612a64565b9050919050565b82818337600083830152505050565b60005b83811015612b0e578082015181840152602081019050612af3565b83811115612b1d576000848401525b50505050565b612b2c82612be1565b810181811067ffffffffffffffff82111715612b4b57612b4a612bb2565b5b80604052505050565b7f4e487b7100000000000000000000000000000000000000000000000000000000600052601160045260246000fd5b7f4e487b7100000000000000000000000000000000000000000000000000000000600052601260045260246000fd5b7f4e487b7100000000000000000000000000000000000000000000000000000000600052604160045260246000fd5b6000601f19601f8301169050919050565b7f4f776e61626c653a206e6577206f776e657220697320746865207a65726f206160008201527f6464726573730000000000000000000000000000000000000000000000000000602082015250565b7f46756e6374696f6e206d7573742062652063616c6c6564207468726f7567682060008201527f64656c656761746563616c6c0000000000000000000000000000000000000000602082015250565b7f46756e6374696f6e206d7573742062652063616c6c6564207468726f7567682060008201527f6163746976652070726f78790000000000000000000000000000000000000000602082015250565b7f776974686472617746726f6d506f6f6c3a3a2063616e206e6f7420776974686460008201527f726177206d6f7265207468616e20796f7572207374616b656420616d6f756e74602082015250565b7f555550535570677261646561626c653a206d757374206e6f742062652063616c60008201527f6c6564207468726f7567682064656c656761746563616c6c0000000000000000602082015250565b7f45524331393637557067726164653a20756e737570706f727465642070726f7860008201527f6961626c65555549440000000000000000000000000000000000000000000000602082015250565b7f496e697469616c697a61626c653a20636f6e747261637420697320616c72656160008201527f647920696e697469616c697a6564000000000000000000000000000000000000602082015250565b7f45524331393637557067726164653a206e657720696d706c656d656e7461746960008201527f6f6e206973206e6f742055555053000000000000000000000000000000000000602082015250565b7f455243313936373a206e657720696d706c656d656e746174696f6e206973206e60008201527f6f74206120636f6e747261637400000000000000000000000000000000000000602082015250565b7f4f776e61626c653a2063616c6c6572206973206e6f7420746865206f776e6572600082015250565b7f416464726573733a2064656c65676174652063616c6c20746f206e6f6e2d636f60008201527f6e74726163740000000000000000000000000000000000000000000000000000602082015250565b7f496e697469616c697a61626c653a20636f6e7472616374206973206e6f74206960008201527f6e697469616c697a696e67000000000000000000000000000000000000000000602082015250565b7f6465706f736974537461626c65436f696e3a3a20616d6f756e742073686f756c60008201527f642062652067726561746572207468616e207a65726f00000000000000000000602082015250565b612fd8816129e4565b8114612fe357600080fd5b50565b612fef816129f6565b8114612ffa57600080fd5b50565b61300681612a02565b811461301157600080fd5b50565b61301d81612a0c565b811461302857600080fd5b50565b61303481612a1e565b811461303f57600080fd5b50565b61304b81612a30565b811461305657600080fd5b50565b61306281612a5a565b811461306d57600080fd5b50565b61307981612a71565b811461308457600080fd5b5056fe416464726573733a206c6f772d6c6576656c2064656c65676174652063616c6c206661696c6564a2646970667358221220981d8071853a90bea9cb2c3c88c4a75da34f6e05927171643838dd5e0ecab1c864736f6c63430008040033",
  "linkReferences": {},
  "deployedLinkReferences": {}
}