{
  "_format": "hh-sol-artifact-1",
  "contractName": "StableCoinStaking",
  "sourceName": "contracts/FixedAPRStaking.sol",
  "abi": [
    {
      "anonymous": false,
      "inputs": [
        {
          "indexed": false,
          "internalType": "address",
          "name": "previousAdmin",
          "type": "address"
        },
        {
          "indexed": false,
          "internalType": "address",
          "name": "newAdmin",
          "type": "address"
        }
      ],
      "name": "AdminChanged",
      "type": "event"
    },
    {
      "anonymous": false,
      "inputs": [
        {
          "indexed": true,
          "internalType": "address",
          "name": "beacon",
          "type": "address"
        }
      ],
      "name": "BeaconUpgraded",
      "type": "event"
    },
    {
      "anonymous": false,
      "inputs": [
        {
          "indexed": false,
          "internalType": "uint8",
          "name": "version",
          "type": "uint8"
        }
      ],
      "name": "Initialized",
      "type": "event"
    },
    {
      "anonymous": false,
      "inputs": [
        {
          "indexed": true,
          "internalType": "address",
          "name": "previousOwner",
          "type": "address"
        },
        {
          "indexed": true,
          "internalType": "address",
          "name": "newOwner",
          "type": "address"
        }
      ],
      "name": "OwnershipTransferred",
      "type": "event"
    },
    {
      "anonymous": false,
      "inputs": [
        {
          "indexed": true,
          "internalType": "address",
          "name": "implementation",
          "type": "address"
        }
      ],
      "name": "Upgraded",
      "type": "event"
    },
    {
      "inputs": [
        {
          "internalType": "uint256",
          "name": "",
          "type": "uint256"
        }
      ],
      "name": "bonusRewardRates",
      "outputs": [
        {
          "internalType": "uint256",
          "name": "",
          "type": "uint256"
        }
      ],
      "stateMutability": "view",
      "type": "function"
    },
    {
      "inputs": [],
      "name": "chainlinkAggregatorAddress",
      "outputs": [
        {
          "internalType": "contract AggregatorV3Interface",
          "name": "",
          "type": "address"
        }
      ],
      "stateMutability": "view",
      "type": "function"
    },
    {
      "inputs": [],
      "name": "claimERC20RewardTokens",
      "outputs": [],
      "stateMutability": "nonpayable",
      "type": "function"
    },
    {
      "inputs": [
        {
          "internalType": "uint256",
          "name": "_amount",
          "type": "uint256"
        }
      ],
      "name": "depositInPool",
      "outputs": [],
      "stateMutability": "nonpayable",
      "type": "function"
    },
    {
      "inputs": [
        {
          "internalType": "contract IERC20Upgradeable",
          "name": "_rewardERC20Token",
          "type": "address"
        },
        {
          "internalType": "contract IERC20Upgradeable",
          "name": "_stakedStableCoin",
          "type": "address"
        },
        {
          "internalType": "contract AggregatorV3Interface",
          "name": "_chainlinkAggregatorAddress",
          "type": "address"
        },
        {
          "internalType": "uint256",
          "name": "_stakingEndBlock",
          "type": "uint256"
        }
      ],
      "name": "initialize",
      "outputs": [],
      "stateMutability": "nonpayable",
      "type": "function"
    },
    {
      "inputs": [],
      "name": "owner",
      "outputs": [
        {
          "internalType": "address",
          "name": "",
          "type": "address"
        }
      ],
      "stateMutability": "view",
      "type": "function"
    },
    {
      "inputs": [],
      "name": "proxiableUUID",
      "outputs": [
        {
          "internalType": "bytes32",
          "name": "",
          "type": "bytes32"
        }
      ],
      "stateMutability": "view",
      "type": "function"
    },
    {
      "inputs": [],
      "name": "renounceOwnership",
      "outputs": [],
      "stateMutability": "nonpayable",
      "type": "function"
    },
    {
      "inputs": [],
      "name": "rewardERC20Token",
      "outputs": [
        {
          "internalType": "contract IERC20Upgradeable",
          "name": "",
          "type": "address"
        }
      ],
      "stateMutability": "view",
      "type": "function"
    },
    {
      "inputs": [
        {
          "internalType": "uint256",
          "name": "",
          "type": "uint256"
        }
      ],
      "name": "rewardRates",
      "outputs": [
        {
          "internalType": "uint256",
          "name": "",
          "type": "uint256"
        }
      ],
      "stateMutability": "view",
      "type": "function"
    },
    {
      "inputs": [],
      "name": "stakedStableCoin",
      "outputs": [
        {
          "internalType": "contract IERC20Upgradeable",
          "name": "",
          "type": "address"
        }
      ],
      "stateMutability": "view",
      "type": "function"
    },
    {
      "inputs": [],
      "name": "stakingEndBlock",
      "outputs": [
        {
          "internalType": "uint256",
          "name": "",
          "type": "uint256"
        }
      ],
      "stateMutability": "view",
      "type": "function"
    },
    {
      "inputs": [],
      "name": "totalStakedInPool",
      "outputs": [
        {
          "internalType": "uint256",
          "name": "",
          "type": "uint256"
        }
      ],
      "stateMutability": "view",
      "type": "function"
    },
    {
      "inputs": [
        {
          "internalType": "address",
          "name": "newOwner",
          "type": "address"
        }
      ],
      "name": "transferOwnership",
      "outputs": [],
      "stateMutability": "nonpayable",
      "type": "function"
    },
    {
      "inputs": [
        {
          "internalType": "address",
          "name": "newImplementation",
          "type": "address"
        }
      ],
      "name": "upgradeTo",
      "outputs": [],
      "stateMutability": "nonpayable",
      "type": "function"
    },
    {
      "inputs": [
        {
          "internalType": "address",
          "name": "newImplementation",
          "type": "address"
        },
        {
          "internalType": "bytes",
          "name": "data",
          "type": "bytes"
        }
      ],
      "name": "upgradeToAndCall",
      "outputs": [],
      "stateMutability": "payable",
      "type": "function"
    },
    {
      "inputs": [
        {
          "internalType": "address",
          "name": "",
          "type": "address"
        }
      ],
      "name": "userInfo",
      "outputs": [
        {
          "internalType": "uint256",
          "name": "amountStaked",
          "type": "uint256"
        },
        {
          "internalType": "uint256",
          "name": "depositDuration",
          "type": "uint256"
        },
        {
          "internalType": "uint256",
          "name": "rewardEarned",
          "type": "uint256"
        },
        {
          "internalType": "uint256",
          "name": "lastRewardWithdrawl",
          "type": "uint256"
        }
      ],
      "stateMutability": "view",
      "type": "function"
    },
    {
      "inputs": [
        {
          "internalType": "uint256",
          "name": "_amount",
          "type": "uint256"
        }
      ],
      "name": "withdrawFromPool",
      "outputs": [],
      "stateMutability": "nonpayable",
      "type": "function"
    }
  ],
  "bytecode": "0x60a06040523073ffffffffffffffffffffffffffffffffffffffff1660809073ffffffffffffffffffffffffffffffffffffffff1660601b81525034801561004657600080fd5b5060805160601c6130da610081600039600081816108750152818161090401528181610a4a01528181610ad90152610b8901526130da6000f3fe6080604052600436106101095760003560e01c806355421aef11610095578063cf756fdf11610064578063cf756fdf14610315578063d008058b1461033e578063f2caeb1e1461037b578063f2fde38b146103b8578063f41ac47f146103e157610109565b806355421aef14610291578063715018a6146102bc578063800b9e52146102d35780638da5cb5b146102ea57610109565b806330fc43ed116100dc57806330fc43ed146101cd5780633659cfe6146101f65780634c8136eb1461021f5780634f1ef2861461024a57806352d1902d1461026657610109565b80630a122c8a1461010e5780631959a002146101395780631d95e7f1146101795780632c2f31ff146101a2575b600080fd5b34801561011a57600080fd5b5061012361040c565b604051610130919061282c565b60405180910390f35b34801561014557600080fd5b50610160600480360381019061015b919061217b565b610412565b6040516101709493929190612847565b60405180910390f35b34801561018557600080fd5b506101a0600480360381019061019b91906122ad565b610442565b005b3480156101ae57600080fd5b506101b7610626565b6040516101c49190612654565b60405180910390f35b3480156101d957600080fd5b506101f460048036038101906101ef91906122ad565b61064c565b005b34801561020257600080fd5b5061021d6004803603810190610218919061217b565b610873565b005b34801561022b57600080fd5b50610234610a22565b6040516102419190612639565b60405180910390f35b610264600480360381019061025f91906121a4565b610a48565b005b34801561027257600080fd5b5061027b610b85565b604051610288919061261e565b60405180910390f35b34801561029d57600080fd5b506102a6610c3e565b6040516102b3919061282c565b60405180910390f35b3480156102c857600080fd5b506102d1610c44565b005b3480156102df57600080fd5b506102e8610ccc565b005b3480156102f657600080fd5b506102ff610cd6565b60405161030c91906125cc565b60405180910390f35b34801561032157600080fd5b5061033c6004803603810190610337919061224a565b610d00565b005b34801561034a57600080fd5b50610365600480360381019061036091906122ad565b610e6a565b604051610372919061282c565b60405180910390f35b34801561038757600080fd5b506103a2600480360381019061039d91906122ad565b610e82565b6040516103af919061282c565b60405180910390f35b3480156103c457600080fd5b506103df60048036038101906103da919061217b565b610e9a565b005b3480156103ed57600080fd5b506103f6610f92565b6040516104039190612654565b60405180910390f35b60c95481565b60d26020528060005260406000206000915090508060000154908060010154908060020154908060030154905084565b60008111610485576040517f08c379a000000000000000000000000000000000000000000000000000000000815260040161047c9061280c565b60405180910390fd5b60ce60009054906101000a900473ffffffffffffffffffffffffffffffffffffffff1673ffffffffffffffffffffffffffffffffffffffff166323b872dd3330846040518463ffffffff1660e01b81526004016104e4939291906125e7565b602060405180830381600087803b1580156104fe57600080fd5b505af1158015610512573d6000803e3d6000fd5b505050506040513d601f19601f8201168201806040525081019061053691906121f8565b5061053f610fb8565b6105948160d260003373ffffffffffffffffffffffffffffffffffffffff1673ffffffffffffffffffffffffffffffffffffffff1681526020019081526020016000206000015461116690919063ffffffff16565b60d260003373ffffffffffffffffffffffffffffffffffffffff1673ffffffffffffffffffffffffffffffffffffffff168152602001908152602001600020600001819055506105ef8160ca5461116690919063ffffffff16565b60ca819055506106093360cb61117c90919063ffffffff16565b610623576106213360cb6111ac90919063ffffffff16565b505b50565b60cd60009054906101000a900473ffffffffffffffffffffffffffffffffffffffff1681565b60d260003373ffffffffffffffffffffffffffffffffffffffff1673ffffffffffffffffffffffffffffffffffffffff168152602001908152602001600020600001548111156106d1576040517f08c379a00000000000000000000000000000000000000000000000000000000081526004016106c89061270c565b60405180910390fd5b6106d9610fb8565b60ce60009054906101000a900473ffffffffffffffffffffffffffffffffffffffff1673ffffffffffffffffffffffffffffffffffffffff166323b872dd3033846040518463ffffffff1660e01b8152600401610738939291906125e7565b602060405180830381600087803b15801561075257600080fd5b505af1158015610766573d6000803e3d6000fd5b505050506040513d601f19601f8201168201806040525081019061078a91906121f8565b506107e08160d260003373ffffffffffffffffffffffffffffffffffffffff1673ffffffffffffffffffffffffffffffffffffffff168152602001908152602001600020600001546111dc90919063ffffffff16565b60d260003373ffffffffffffffffffffffffffffffffffffffff1673ffffffffffffffffffffffffffffffffffffffff1681526020019081526020016000206000018190555061083b8160ca546111dc90919063ffffffff16565b60ca819055506108553360cb61117c90919063ffffffff16565b156108705761086e3360cb6111f290919063ffffffff16565b505b50565b7f000000000000000000000000000000000000000000000000000000000000000073ffffffffffffffffffffffffffffffffffffffff163073ffffffffffffffffffffffffffffffffffffffff161415610902576040517f08c379a00000000000000000000000000000000000000000000000000000000081526004016108f9906126cc565b60405180910390fd5b7f000000000000000000000000000000000000000000000000000000000000000073ffffffffffffffffffffffffffffffffffffffff16610941611222565b73ffffffffffffffffffffffffffffffffffffffff1614610997576040517f08c379a000000000000000000000000000000000000000000000000000000000815260040161098e906126ec565b60405180910390fd5b6109a081611279565b610a1f81600067ffffffffffffffff8111156109e5577f4e487b7100000000000000000000000000000000000000000000000000000000600052604160045260246000fd5b6040519080825280601f01601f191660200182016040528015610a175781602001600182028036833780820191505090505b5060006112f8565b50565b60cf60009054906101000a900473ffffffffffffffffffffffffffffffffffffffff1681565b7f000000000000000000000000000000000000000000000000000000000000000073ffffffffffffffffffffffffffffffffffffffff163073ffffffffffffffffffffffffffffffffffffffff161415610ad7576040517f08c379a0000000000000000000000000000000000000000000000000000000008152600401610ace906126cc565b60405180910390fd5b7f000000000000000000000000000000000000000000000000000000000000000073ffffffffffffffffffffffffffffffffffffffff16610b16611222565b73ffffffffffffffffffffffffffffffffffffffff1614610b6c576040517f08c379a0000000000000000000000000000000000000000000000000000000008152600401610b63906126ec565b60405180910390fd5b610b7582611279565b610b81828260016112f8565b5050565b60007f000000000000000000000000000000000000000000000000000000000000000073ffffffffffffffffffffffffffffffffffffffff163073ffffffffffffffffffffffffffffffffffffffff1614610c15576040517f08c379a0000000000000000000000000000000000000000000000000000000008152600401610c0c9061272c565b60405180910390fd5b7f360894a13ba1a3210667c828492db98dca3e2076cc3735a920a3ca505d382bbc60001b905090565b60ca5481565b610c4c611475565b73ffffffffffffffffffffffffffffffffffffffff16610c6a610cd6565b73ffffffffffffffffffffffffffffffffffffffff1614610cc0576040517f08c379a0000000000000000000000000000000000000000000000000000000008152600401610cb7906127cc565b60405180910390fd5b610cca600061147d565b565b610cd4610fb8565b565b6000603360009054906101000a900473ffffffffffffffffffffffffffffffffffffffff16905090565b6000610d0c6001611543565b90508015610d30576001600060016101000a81548160ff0219169083151502179055505b8460cd60006101000a81548173ffffffffffffffffffffffffffffffffffffffff021916908373ffffffffffffffffffffffffffffffffffffffff1602179055508360ce60006101000a81548173ffffffffffffffffffffffffffffffffffffffff021916908373ffffffffffffffffffffffffffffffffffffffff1602179055508260cf60006101000a81548173ffffffffffffffffffffffffffffffffffffffff021916908373ffffffffffffffffffffffffffffffffffffffff1602179055508160c981905550610e02611633565b610e0a611685565b8015610e635760008060016101000a81548160ff0219169083151502179055507f7f26b83ff96e1f2b6a682f133852f6798a09c465da95921460cefb38474024986001604051610e5a919061266f565b60405180910390a15b5050505050565b60d16020528060005260406000206000915090505481565b60d06020528060005260406000206000915090505481565b610ea2611475565b73ffffffffffffffffffffffffffffffffffffffff16610ec0610cd6565b73ffffffffffffffffffffffffffffffffffffffff1614610f16576040517f08c379a0000000000000000000000000000000000000000000000000000000008152600401610f0d906127cc565b60405180910390fd5b600073ffffffffffffffffffffffffffffffffffffffff168173ffffffffffffffffffffffffffffffffffffffff161415610f86576040517f08c379a0000000000000000000000000000000000000000000000000000000008152600401610f7d906126ac565b60405180910390fd5b610f8f8161147d565b50565b60ce60009054906101000a900473ffffffffffffffffffffffffffffffffffffffff1681565b6000610fc3336116d6565b9050600081111561111c5760cd60009054906101000a900473ffffffffffffffffffffffffffffffffffffffff1673ffffffffffffffffffffffffffffffffffffffff166323b872dd3033846040518463ffffffff1660e01b815260040161102d939291906125e7565b602060405180830381600087803b15801561104757600080fd5b505af115801561105b573d6000803e3d6000fd5b505050506040513d601f19601f8201168201806040525081019061107f91906121f8565b506110d58160d260003373ffffffffffffffffffffffffffffffffffffffff1673ffffffffffffffffffffffffffffffffffffffff1681526020019081526020016000206002015461116690919063ffffffff16565b60d260003373ffffffffffffffffffffffffffffffffffffffff1673ffffffffffffffffffffffffffffffffffffffff168152602001908152602001600020600201819055505b4260d260003373ffffffffffffffffffffffffffffffffffffffff1673ffffffffffffffffffffffffffffffffffffffff1681526020019081526020016000206003018190555050565b600081836111749190612914565b905092915050565b60006111a4836000018373ffffffffffffffffffffffffffffffffffffffff1660001b611aab565b905092915050565b60006111d4836000018373ffffffffffffffffffffffffffffffffffffffff1660001b611ace565b905092915050565b600081836111ea91906129f5565b905092915050565b600061121a836000018373ffffffffffffffffffffffffffffffffffffffff1660001b611b3e565b905092915050565b60006112507f360894a13ba1a3210667c828492db98dca3e2076cc3735a920a3ca505d382bbc60001b611cc4565b60000160009054906101000a900473ffffffffffffffffffffffffffffffffffffffff16905090565b611281611475565b73ffffffffffffffffffffffffffffffffffffffff1661129f610cd6565b73ffffffffffffffffffffffffffffffffffffffff16146112f5576040517f08c379a00000000000000000000000000000000000000000000000000000000081526004016112ec906127cc565b60405180910390fd5b50565b6113247f4910fdfa16fed3260ed0e7147f7cc6da11a60208b5b9406d12a635614ffd914360001b611cce565b60000160009054906101000a900460ff16156113485761134383611cd8565b611470565b8273ffffffffffffffffffffffffffffffffffffffff166352d1902d6040518163ffffffff1660e01b815260040160206040518083038186803b15801561138e57600080fd5b505afa9250505080156113bf57506040513d601f19601f820116820180604052508101906113bc9190612221565b60015b6113fe576040517f08c379a00000000000000000000000000000000000000000000000000000000081526004016113f59061278c565b60405180910390fd5b7f360894a13ba1a3210667c828492db98dca3e2076cc3735a920a3ca505d382bbc60001b8114611463576040517f08c379a000000000000000000000000000000000000000000000000000000000815260040161145a9061274c565b60405180910390fd5b5061146f838383611d91565b5b505050565b600033905090565b6000603360009054906101000a900473ffffffffffffffffffffffffffffffffffffffff16905081603360006101000a81548173ffffffffffffffffffffffffffffffffffffffff021916908373ffffffffffffffffffffffffffffffffffffffff1602179055508173ffffffffffffffffffffffffffffffffffffffff168173ffffffffffffffffffffffffffffffffffffffff167f8be0079c531659141344cd1fd0a4f28419497f9722a3daafe3b4186f6b6457e060405160405180910390a35050565b60008060019054906101000a900460ff16156115ba5760018260ff16148015611572575061157030611dbd565b155b6115b1576040517f08c379a00000000000000000000000000000000000000000000000000000000081526004016115a89061276c565b60405180910390fd5b6000905061162e565b8160ff1660008054906101000a900460ff1660ff161061160f576040517f08c379a00000000000000000000000000000000000000000000000000000000081526004016116069061276c565b60405180910390fd5b816000806101000a81548160ff021916908360ff160217905550600190505b919050565b6101f460d06000808152602001908152602001600020819055506103e860d0600060018152602001908152602001600020819055506105dc60d060006002815260200190815260200160002081905550565b60c860d16000808152602001908152602001600020819055506101f460d1600060018152602001908152602001600020819055506103e860d160006002815260200190815260200160002081905550565b60006116ec8260cb61117c90919063ffffffff16565b6116f95760009050611aa6565b600060d260008473ffffffffffffffffffffffffffffffffffffffff1673ffffffffffffffffffffffffffffffffffffffff16815260200190815260200160002060000154141561174d5760009050611aa6565b60006117a460d260008573ffffffffffffffffffffffffffffffffffffffff1673ffffffffffffffffffffffffffffffffffffffff16815260200190815260200160002060030154426111dc90919063ffffffff16565b9050600060d260008573ffffffffffffffffffffffffffffffffffffffff1673ffffffffffffffffffffffffffffffffffffffff168152602001908152602001600020600001549050600061181f6305f5e100611811611802611de0565b85611e9090919063ffffffff16565b611ea690919063ffffffff16565b9050600061187b62278d0060d260008973ffffffffffffffffffffffffffffffffffffffff1673ffffffffffffffffffffffffffffffffffffffff1681526020019081526020016000206001015461116690919063ffffffff16565b421061189c5760d060008081526020019081526020016000205490506119ab565b6118f462ed4e0060d260008973ffffffffffffffffffffffffffffffffffffffff1673ffffffffffffffffffffffffffffffffffffffff1681526020019081526020016000206001015461116690919063ffffffff16565b42106119165760d06000600181526020019081526020016000205490506119aa565b61196f6301e1338060d260008973ffffffffffffffffffffffffffffffffffffffff1673ffffffffffffffffffffffffffffffffffffffff1681526020019081526020016000206001015461116690919063ffffffff16565b42106119915760d06000600281526020019081526020016000205490506119a9565b60d06000600281526020019081526020016000205490505b5b5b606482106119e0576119d960d06000808152602001908152602001600020548261116690919063ffffffff16565b9050611a4c565b6101f48210611a1757611a1060d0600060018152602001908152602001600020548261116690919063ffffffff16565b9050611a4b565b6103e88210611a4a57611a4760d0600060028152602001908152602001600020548261116690919063ffffffff16565b90505b5b5b6000611a9b612710611a8d60c954611a7f89611a71888b611e9090919063ffffffff16565b611e9090919063ffffffff16565b611ea690919063ffffffff16565b611ea690919063ffffffff16565b905080955050505050505b919050565b600080836001016000848152602001908152602001600020541415905092915050565b6000611ada8383611aab565b611b33578260000182908060018154018082558091505060019003906000526020600020016000909190919091505582600001805490508360010160008481526020019081526020016000208190555060019050611b38565b600090505b92915050565b60008083600101600084815260200190815260200160002054905060008114611cb8576000600182611b7091906129f5565b9050600060018660000180549050611b8891906129f5565b9050818114611c43576000866000018281548110611bcf577f4e487b7100000000000000000000000000000000000000000000000000000000600052603260045260246000fd5b9060005260206000200154905080876000018481548110611c19577f4e487b7100000000000000000000000000000000000000000000000000000000600052603260045260246000fd5b90600052602060002001819055508387600101600083815260200190815260200160002081905550505b85600001805480611c7d577f4e487b7100000000000000000000000000000000000000000000000000000000600052603160045260246000fd5b600190038181906000526020600020016000905590558560010160008681526020019081526020016000206000905560019350505050611cbe565b60009150505b92915050565b6000819050919050565b6000819050919050565b611ce181611dbd565b611d20576040517f08c379a0000000000000000000000000000000000000000000000000000000008152600401611d17906127ac565b60405180910390fd5b80611d4d7f360894a13ba1a3210667c828492db98dca3e2076cc3735a920a3ca505d382bbc60001b611cc4565b60000160006101000a81548173ffffffffffffffffffffffffffffffffffffffff021916908373ffffffffffffffffffffffffffffffffffffffff16021790555050565b611d9a83611ebc565b600082511180611da75750805b15611db857611db68383611f0b565b505b505050565b6000808273ffffffffffffffffffffffffffffffffffffffff163b119050919050565b60008060cf60009054906101000a900473ffffffffffffffffffffffffffffffffffffffff1673ffffffffffffffffffffffffffffffffffffffff1663feaf968c6040518163ffffffff1660e01b815260040160a06040518083038186803b158015611e4b57600080fd5b505afa158015611e5f573d6000803e3d6000fd5b505050506040513d601f19601f82011682018060405250810190611e8391906122d6565b5050509150508091505090565b60008183611e9e919061299b565b905092915050565b60008183611eb4919061296a565b905092915050565b611ec581611cd8565b8073ffffffffffffffffffffffffffffffffffffffff167fbc7cd75a20ee27fd9adebab32041f755214dbc6bffa90cc0225b39da2e5c2d3b60405160405180910390a250565b6060611f1683611dbd565b611f55576040517f08c379a0000000000000000000000000000000000000000000000000000000008152600401611f4c906127ec565b60405180910390fd5b6000808473ffffffffffffffffffffffffffffffffffffffff1684604051611f7d91906125b5565b600060405180830381855af49150503d8060008114611fb8576040519150601f19603f3d011682016040523d82523d6000602084013e611fbd565b606091505b5091509150611fe5828260405180606001604052806027815260200161307e60279139611fef565b9250505092915050565b60608315611fff5782905061204f565b6000835111156120125782518084602001fd5b816040517f08c379a0000000000000000000000000000000000000000000000000000000008152600401612046919061268a565b60405180910390fd5b9392505050565b6000612069612064846128b1565b61288c565b90508281526020810184848401111561208157600080fd5b61208c848285612b26565b509392505050565b6000813590506120a381612fc5565b92915050565b6000815190506120b881612fdc565b92915050565b6000815190506120cd81612ff3565b92915050565b600082601f8301126120e457600080fd5b81356120f4848260208601612056565b91505092915050565b60008135905061210c8161300a565b92915050565b60008135905061212181613021565b92915050565b60008151905061213681613038565b92915050565b60008135905061214b8161304f565b92915050565b6000815190506121608161304f565b92915050565b60008151905061217581613066565b92915050565b60006020828403121561218d57600080fd5b600061219b84828501612094565b91505092915050565b600080604083850312156121b757600080fd5b60006121c585828601612094565b925050602083013567ffffffffffffffff8111156121e257600080fd5b6121ee858286016120d3565b9150509250929050565b60006020828403121561220a57600080fd5b6000612218848285016120a9565b91505092915050565b60006020828403121561223357600080fd5b6000612241848285016120be565b91505092915050565b6000806000806080858703121561226057600080fd5b600061226e87828801612112565b945050602061227f87828801612112565b9350506040612290878288016120fd565b92505060606122a18782880161213c565b91505092959194509250565b6000602082840312156122bf57600080fd5b60006122cd8482850161213c565b91505092915050565b600080600080600060a086880312156122ee57600080fd5b60006122fc88828901612166565b955050602061230d88828901612127565b945050604061231e88828901612151565b935050606061232f88828901612151565b925050608061234088828901612166565b9150509295509295909350565b61235681612a29565b82525050565b61236581612a47565b82525050565b6000612376826128e2565b61238081856128f8565b9350612390818560208601612b35565b80840191505092915050565b6123a581612acc565b82525050565b6123b481612af0565b82525050565b6123c381612b14565b82525050565b60006123d4826128ed565b6123de8185612903565b93506123ee818560208601612b35565b6123f781612c26565b840191505092915050565b600061240f602683612903565b915061241a82612c37565b604082019050919050565b6000612432602c83612903565b915061243d82612c86565b604082019050919050565b6000612455602c83612903565b915061246082612cd5565b604082019050919050565b6000612478604083612903565b915061248382612d24565b604082019050919050565b600061249b603883612903565b91506124a682612d73565b604082019050919050565b60006124be602983612903565b91506124c982612dc2565b604082019050919050565b60006124e1602e83612903565b91506124ec82612e11565b604082019050919050565b6000612504602e83612903565b915061250f82612e60565b604082019050919050565b6000612527602d83612903565b915061253282612eaf565b604082019050919050565b600061254a602083612903565b915061255582612efe565b602082019050919050565b600061256d602683612903565b915061257882612f27565b604082019050919050565b6000612590603683612903565b915061259b82612f76565b604082019050919050565b6125af81612a9f565b82525050565b60006125c1828461236b565b915081905092915050565b60006020820190506125e1600083018461234d565b92915050565b60006060820190506125fc600083018661234d565b612609602083018561234d565b61261660408301846125a6565b949350505050565b6000602082019050612633600083018461235c565b92915050565b600060208201905061264e600083018461239c565b92915050565b600060208201905061266960008301846123ab565b92915050565b600060208201905061268460008301846123ba565b92915050565b600060208201905081810360008301526126a481846123c9565b905092915050565b600060208201905081810360008301526126c581612402565b9050919050565b600060208201905081810360008301526126e581612425565b9050919050565b6000602082019050818103600083015261270581612448565b9050919050565b600060208201905081810360008301526127258161246b565b9050919050565b600060208201905081810360008301526127458161248e565b9050919050565b60006020820190508181036000830152612765816124b1565b9050919050565b60006020820190508181036000830152612785816124d4565b9050919050565b600060208201905081810360008301526127a5816124f7565b9050919050565b600060208201905081810360008301526127c58161251a565b9050919050565b600060208201905081810360008301526127e58161253d565b9050919050565b6000602082019050818103600083015261280581612560565b9050919050565b6000602082019050818103600083015261282581612583565b9050919050565b600060208201905061284160008301846125a6565b92915050565b600060808201905061285c60008301876125a6565b61286960208301866125a6565b61287660408301856125a6565b61288360608301846125a6565b95945050505050565b60006128966128a7565b90506128a28282612b68565b919050565b6000604051905090565b600067ffffffffffffffff8211156128cc576128cb612bf7565b5b6128d582612c26565b9050602081019050919050565b600081519050919050565b600081519050919050565b600081905092915050565b600082825260208201905092915050565b600061291f82612a9f565b915061292a83612a9f565b9250827fffffffffffffffffffffffffffffffffffffffffffffffffffffffffffffffff0382111561295f5761295e612b99565b5b828201905092915050565b600061297582612a9f565b915061298083612a9f565b9250826129905761298f612bc8565b5b828204905092915050565b60006129a682612a9f565b91506129b183612a9f565b9250817fffffffffffffffffffffffffffffffffffffffffffffffffffffffffffffffff04831182151516156129ea576129e9612b99565b5b828202905092915050565b6000612a0082612a9f565b9150612a0b83612a9f565b925082821015612a1e57612a1d612b99565b5b828203905092915050565b6000612a3482612a7f565b9050919050565b60008115159050919050565b6000819050919050565b6000612a5c82612a29565b9050919050565b6000612a6e82612a29565b9050919050565b6000819050919050565b600073ffffffffffffffffffffffffffffffffffffffff82169050919050565b6000819050919050565b600060ff82169050919050565b600069ffffffffffffffffffff82169050919050565b6000612ad782612ade565b9050919050565b6000612ae982612a7f565b9050919050565b6000612afb82612b02565b9050919050565b6000612b0d82612a7f565b9050919050565b6000612b1f82612aa9565b9050919050565b82818337600083830152505050565b60005b83811015612b53578082015181840152602081019050612b38565b83811115612b62576000848401525b50505050565b612b7182612c26565b810181811067ffffffffffffffff82111715612b9057612b8f612bf7565b5b80604052505050565b7f4e487b7100000000000000000000000000000000000000000000000000000000600052601160045260246000fd5b7f4e487b7100000000000000000000000000000000000000000000000000000000600052601260045260246000fd5b7f4e487b7100000000000000000000000000000000000000000000000000000000600052604160045260246000fd5b6000601f19601f8301169050919050565b7f4f776e61626c653a206e6577206f776e657220697320746865207a65726f206160008201527f6464726573730000000000000000000000000000000000000000000000000000602082015250565b7f46756e6374696f6e206d7573742062652063616c6c6564207468726f7567682060008201527f64656c656761746563616c6c0000000000000000000000000000000000000000602082015250565b7f46756e6374696f6e206d7573742062652063616c6c6564207468726f7567682060008201527f6163746976652070726f78790000000000000000000000000000000000000000602082015250565b7f776974686472617746726f6d506f6f6c3a3a2063616e206e6f7420776974686460008201527f726177206d6f7265207468616e20796f7572207374616b656420616d6f756e74602082015250565b7f555550535570677261646561626c653a206d757374206e6f742062652063616c60008201527f6c6564207468726f7567682064656c656761746563616c6c0000000000000000602082015250565b7f45524331393637557067726164653a20756e737570706f727465642070726f7860008201527f6961626c65555549440000000000000000000000000000000000000000000000602082015250565b7f496e697469616c697a61626c653a20636f6e747261637420697320616c72656160008201527f647920696e697469616c697a6564000000000000000000000000000000000000602082015250565b7f45524331393637557067726164653a206e657720696d706c656d656e7461746960008201527f6f6e206973206e6f742055555053000000000000000000000000000000000000602082015250565b7f455243313936373a206e657720696d706c656d656e746174696f6e206973206e60008201527f6f74206120636f6e747261637400000000000000000000000000000000000000602082015250565b7f4f776e61626c653a2063616c6c6572206973206e6f7420746865206f776e6572600082015250565b7f416464726573733a2064656c65676174652063616c6c20746f206e6f6e2d636f60008201527f6e74726163740000000000000000000000000000000000000000000000000000602082015250565b7f6465706f736974537461626c65436f696e3a3a20616d6f756e742073686f756c60008201527f642062652067726561746572207468616e207a65726f00000000000000000000602082015250565b612fce81612a29565b8114612fd957600080fd5b50565b612fe581612a3b565b8114612ff057600080fd5b50565b612ffc81612a47565b811461300757600080fd5b50565b61301381612a51565b811461301e57600080fd5b50565b61302a81612a63565b811461303557600080fd5b50565b61304181612a75565b811461304c57600080fd5b50565b61305881612a9f565b811461306357600080fd5b50565b61306f81612ab6565b811461307a57600080fd5b5056fe416464726573733a206c6f772d6c6576656c2064656c65676174652063616c6c206661696c6564a26469706673582212205b1099e5335ded8e633d59cce70414509c7beb2c34ddbef66169e3e67721f65364736f6c63430008040033",
  "linkReferences": {},
  "deployedLinkReferences": {}
}