{
  "_format": "hh-sol-artifact-1",
  "contractName": "StableCoinStaking",
  "sourceName": "contracts/FixedAPRStaking.sol",
  "abi": [
    {
      "anonymous": false,
      "inputs": [
        {
          "indexed": false,
          "internalType": "address",
          "name": "previousAdmin",
          "type": "address"
        },
        {
          "indexed": false,
          "internalType": "address",
          "name": "newAdmin",
          "type": "address"
        }
      ],
      "name": "AdminChanged",
      "type": "event"
    },
    {
      "anonymous": false,
      "inputs": [
        {
          "indexed": true,
          "internalType": "address",
          "name": "beacon",
          "type": "address"
        }
      ],
      "name": "BeaconUpgraded",
      "type": "event"
    },
    {
      "anonymous": false,
      "inputs": [
        {
          "indexed": false,
          "internalType": "uint8",
          "name": "version",
          "type": "uint8"
        }
      ],
      "name": "Initialized",
      "type": "event"
    },
    {
      "anonymous": false,
      "inputs": [
        {
          "indexed": true,
          "internalType": "address",
          "name": "previousOwner",
          "type": "address"
        },
        {
          "indexed": true,
          "internalType": "address",
          "name": "newOwner",
          "type": "address"
        }
      ],
      "name": "OwnershipTransferred",
      "type": "event"
    },
    {
      "anonymous": false,
      "inputs": [
        {
          "indexed": true,
          "internalType": "address",
          "name": "implementation",
          "type": "address"
        }
      ],
      "name": "Upgraded",
      "type": "event"
    },
    {
      "inputs": [
        {
          "internalType": "uint256",
          "name": "",
          "type": "uint256"
        }
      ],
      "name": "bonusRewardRates",
      "outputs": [
        {
          "internalType": "uint256",
          "name": "",
          "type": "uint256"
        }
      ],
      "stateMutability": "view",
      "type": "function"
    },
    {
      "inputs": [],
      "name": "chainlinkAggregatorAddress",
      "outputs": [
        {
          "internalType": "contract AggregatorV3Interface",
          "name": "",
          "type": "address"
        }
      ],
      "stateMutability": "view",
      "type": "function"
    },
    {
      "inputs": [],
      "name": "claimERC20RewardTokens",
      "outputs": [],
      "stateMutability": "nonpayable",
      "type": "function"
    },
    {
      "inputs": [
        {
          "internalType": "uint256",
          "name": "_amount",
          "type": "uint256"
        }
      ],
      "name": "depositInPool",
      "outputs": [],
      "stateMutability": "nonpayable",
      "type": "function"
    },
    {
      "inputs": [
        {
          "internalType": "contract IERC20Upgradeable",
          "name": "_rewardERC20Token",
          "type": "address"
        },
        {
          "internalType": "contract IERC20Upgradeable",
          "name": "_stakedStableCoin",
          "type": "address"
        },
        {
          "internalType": "contract AggregatorV3Interface",
          "name": "_chainlinkAggregatorAddress",
          "type": "address"
        },
        {
          "internalType": "uint256",
          "name": "_stakingEndTimestamp",
          "type": "uint256"
        }
      ],
      "name": "initialize",
      "outputs": [],
      "stateMutability": "nonpayable",
      "type": "function"
    },
    {
      "inputs": [],
      "name": "owner",
      "outputs": [
        {
          "internalType": "address",
          "name": "",
          "type": "address"
        }
      ],
      "stateMutability": "view",
      "type": "function"
    },
    {
      "inputs": [],
      "name": "proxiableUUID",
      "outputs": [
        {
          "internalType": "bytes32",
          "name": "",
          "type": "bytes32"
        }
      ],
      "stateMutability": "view",
      "type": "function"
    },
    {
      "inputs": [],
      "name": "renounceOwnership",
      "outputs": [],
      "stateMutability": "nonpayable",
      "type": "function"
    },
    {
      "inputs": [],
      "name": "rewardERC20Token",
      "outputs": [
        {
          "internalType": "contract IERC20Upgradeable",
          "name": "",
          "type": "address"
        }
      ],
      "stateMutability": "view",
      "type": "function"
    },
    {
      "inputs": [
        {
          "internalType": "uint256",
          "name": "",
          "type": "uint256"
        }
      ],
      "name": "rewardRates",
      "outputs": [
        {
          "internalType": "uint256",
          "name": "",
          "type": "uint256"
        }
      ],
      "stateMutability": "view",
      "type": "function"
    },
    {
      "inputs": [],
      "name": "stakedStableCoin",
      "outputs": [
        {
          "internalType": "contract IERC20Upgradeable",
          "name": "",
          "type": "address"
        }
      ],
      "stateMutability": "view",
      "type": "function"
    },
    {
      "inputs": [],
      "name": "stakingEndTimestamp",
      "outputs": [
        {
          "internalType": "uint256",
          "name": "",
          "type": "uint256"
        }
      ],
      "stateMutability": "view",
      "type": "function"
    },
    {
      "inputs": [],
      "name": "totalStakedInPool",
      "outputs": [
        {
          "internalType": "uint256",
          "name": "",
          "type": "uint256"
        }
      ],
      "stateMutability": "view",
      "type": "function"
    },
    {
      "inputs": [
        {
          "internalType": "address",
          "name": "newOwner",
          "type": "address"
        }
      ],
      "name": "transferOwnership",
      "outputs": [],
      "stateMutability": "nonpayable",
      "type": "function"
    },
    {
      "inputs": [
        {
          "internalType": "address",
          "name": "newImplementation",
          "type": "address"
        }
      ],
      "name": "upgradeTo",
      "outputs": [],
      "stateMutability": "nonpayable",
      "type": "function"
    },
    {
      "inputs": [
        {
          "internalType": "address",
          "name": "newImplementation",
          "type": "address"
        },
        {
          "internalType": "bytes",
          "name": "data",
          "type": "bytes"
        }
      ],
      "name": "upgradeToAndCall",
      "outputs": [],
      "stateMutability": "payable",
      "type": "function"
    },
    {
      "inputs": [
        {
          "internalType": "address",
          "name": "",
          "type": "address"
        }
      ],
      "name": "userInfo",
      "outputs": [
        {
          "internalType": "uint256",
          "name": "amountStaked",
          "type": "uint256"
        },
        {
          "internalType": "uint256",
          "name": "depositDuration",
          "type": "uint256"
        },
        {
          "internalType": "uint256",
          "name": "rewardEarned",
          "type": "uint256"
        },
        {
          "internalType": "uint256",
          "name": "lastRewardWithdrawl",
          "type": "uint256"
        }
      ],
      "stateMutability": "view",
      "type": "function"
    },
    {
      "inputs": [
        {
          "internalType": "uint256",
          "name": "_amount",
          "type": "uint256"
        }
      ],
      "name": "withdrawFromPool",
      "outputs": [],
      "stateMutability": "nonpayable",
      "type": "function"
    }
  ],
  "bytecode": "0x60a06040523073ffffffffffffffffffffffffffffffffffffffff1660809073ffffffffffffffffffffffffffffffffffffffff1660601b81525034801561004657600080fd5b5060805160601c6132ef610081600039600081816108b40152818161094301528181610a8901528181610b180152610bc801526132ef6000f3fe6080604052600436106101095760003560e01c8063715018a611610095578063cf756fdf11610064578063cf756fdf14610315578063d008058b1461033e578063f2caeb1e1461037b578063f2fde38b146103b8578063f41ac47f146103e157610109565b8063715018a614610291578063800b9e52146102a85780638da5cb5b146102bf578063c6ccf542146102ea57610109565b80633659cfe6116100dc5780633659cfe6146101cb5780634c8136eb146101f45780634f1ef2861461021f57806352d1902d1461023b57806355421aef1461026657610109565b80631959a0021461010e5780631d95e7f11461014e5780632c2f31ff1461017757806330fc43ed146101a2575b600080fd5b34801561011a57600080fd5b50610135600480360381019061013091906122d5565b61040c565b6040516101459493929190612a0d565b60405180910390f35b34801561015a57600080fd5b5061017560048036038101906101709190612407565b61043c565b005b34801561018357600080fd5b5061018c610667565b60405161019991906127fa565b60405180910390f35b3480156101ae57600080fd5b506101c960048036038101906101c49190612407565b61068d565b005b3480156101d757600080fd5b506101f260048036038101906101ed91906122d5565b6108b2565b005b34801561020057600080fd5b50610209610a61565b60405161021691906127df565b60405180910390f35b610239600480360381019061023491906122fe565b610a87565b005b34801561024757600080fd5b50610250610bc4565b60405161025d91906127c4565b60405180910390f35b34801561027257600080fd5b5061027b610c7d565b60405161028891906129f2565b60405180910390f35b34801561029d57600080fd5b506102a6610c83565b005b3480156102b457600080fd5b506102bd610d0b565b005b3480156102cb57600080fd5b506102d4610d15565b6040516102e19190612749565b60405180910390f35b3480156102f657600080fd5b506102ff610d3f565b60405161030c91906129f2565b60405180910390f35b34801561032157600080fd5b5061033c600480360381019061033791906123a4565b610d45565b005b34801561034a57600080fd5b5061036560048036038101906103609190612407565b610ebf565b60405161037291906129f2565b60405180910390f35b34801561038757600080fd5b506103a2600480360381019061039d9190612407565b610ed7565b6040516103af91906129f2565b60405180910390f35b3480156103c457600080fd5b506103df60048036038101906103da91906122d5565b610eef565b005b3480156103ed57600080fd5b506103f6610fe7565b60405161040391906127fa565b60405180910390f35b60d26020528060005260406000206000915090508060000154908060010154908060020154908060030154905084565b6000811161047f576040517f08c379a0000000000000000000000000000000000000000000000000000000008152600401610476906129d2565b60405180910390fd5b4260d260003373ffffffffffffffffffffffffffffffffffffffff1673ffffffffffffffffffffffffffffffffffffffff1681526020019081526020016000206001018190555060ce60009054906101000a900473ffffffffffffffffffffffffffffffffffffffff1673ffffffffffffffffffffffffffffffffffffffff166323b872dd3330846040518463ffffffff1660e01b815260040161052593929190612764565b602060405180830381600087803b15801561053f57600080fd5b505af1158015610553573d6000803e3d6000fd5b505050506040513d601f19601f820116820180604052508101906105779190612352565b5061058061100d565b6105d58160d260003373ffffffffffffffffffffffffffffffffffffffff1673ffffffffffffffffffffffffffffffffffffffff168152602001908152602001600020600001546111b990919063ffffffff16565b60d260003373ffffffffffffffffffffffffffffffffffffffff1673ffffffffffffffffffffffffffffffffffffffff168152602001908152602001600020600001819055506106308160ca546111b990919063ffffffff16565b60ca8190555061064a3360cb6111cf90919063ffffffff16565b610664576106623360cb6111ff90919063ffffffff16565b505b50565b60cd60009054906101000a900473ffffffffffffffffffffffffffffffffffffffff1681565b60d260003373ffffffffffffffffffffffffffffffffffffffff1673ffffffffffffffffffffffffffffffffffffffff16815260200190815260200160002060000154811115610712576040517f08c379a0000000000000000000000000000000000000000000000000000000008152600401610709906128b2565b60405180910390fd5b61071a61100d565b60ce60009054906101000a900473ffffffffffffffffffffffffffffffffffffffff1673ffffffffffffffffffffffffffffffffffffffff1663a9059cbb33836040518363ffffffff1660e01b815260040161077792919061279b565b602060405180830381600087803b15801561079157600080fd5b505af11580156107a5573d6000803e3d6000fd5b505050506040513d601f19601f820116820180604052508101906107c99190612352565b5061081f8160d260003373ffffffffffffffffffffffffffffffffffffffff1673ffffffffffffffffffffffffffffffffffffffff1681526020019081526020016000206000015461122f90919063ffffffff16565b60d260003373ffffffffffffffffffffffffffffffffffffffff1673ffffffffffffffffffffffffffffffffffffffff1681526020019081526020016000206000018190555061087a8160ca5461122f90919063ffffffff16565b60ca819055506108943360cb6111cf90919063ffffffff16565b156108af576108ad3360cb61124590919063ffffffff16565b505b50565b7f000000000000000000000000000000000000000000000000000000000000000073ffffffffffffffffffffffffffffffffffffffff163073ffffffffffffffffffffffffffffffffffffffff161415610941576040517f08c379a000000000000000000000000000000000000000000000000000000000815260040161093890612872565b60405180910390fd5b7f000000000000000000000000000000000000000000000000000000000000000073ffffffffffffffffffffffffffffffffffffffff16610980611275565b73ffffffffffffffffffffffffffffffffffffffff16146109d6576040517f08c379a00000000000000000000000000000000000000000000000000000000081526004016109cd90612892565b60405180910390fd5b6109df816112cc565b610a5e81600067ffffffffffffffff811115610a24577f4e487b7100000000000000000000000000000000000000000000000000000000600052604160045260246000fd5b6040519080825280601f01601f191660200182016040528015610a565781602001600182028036833780820191505090505b50600061134b565b50565b60cf60009054906101000a900473ffffffffffffffffffffffffffffffffffffffff1681565b7f000000000000000000000000000000000000000000000000000000000000000073ffffffffffffffffffffffffffffffffffffffff163073ffffffffffffffffffffffffffffffffffffffff161415610b16576040517f08c379a0000000000000000000000000000000000000000000000000000000008152600401610b0d90612872565b60405180910390fd5b7f000000000000000000000000000000000000000000000000000000000000000073ffffffffffffffffffffffffffffffffffffffff16610b55611275565b73ffffffffffffffffffffffffffffffffffffffff1614610bab576040517f08c379a0000000000000000000000000000000000000000000000000000000008152600401610ba290612892565b60405180910390fd5b610bb4826112cc565b610bc08282600161134b565b5050565b60007f000000000000000000000000000000000000000000000000000000000000000073ffffffffffffffffffffffffffffffffffffffff163073ffffffffffffffffffffffffffffffffffffffff1614610c54576040517f08c379a0000000000000000000000000000000000000000000000000000000008152600401610c4b906128d2565b60405180910390fd5b7f360894a13ba1a3210667c828492db98dca3e2076cc3735a920a3ca505d382bbc60001b905090565b60ca5481565b610c8b6114c8565b73ffffffffffffffffffffffffffffffffffffffff16610ca9610d15565b73ffffffffffffffffffffffffffffffffffffffff1614610cff576040517f08c379a0000000000000000000000000000000000000000000000000000000008152600401610cf690612972565b60405180910390fd5b610d0960006114d0565b565b610d1361100d565b565b6000603360009054906101000a900473ffffffffffffffffffffffffffffffffffffffff16905090565b60c95481565b6000610d516001611596565b90508015610d75576001600060016101000a81548160ff0219169083151502179055505b8460cd60006101000a81548173ffffffffffffffffffffffffffffffffffffffff021916908373ffffffffffffffffffffffffffffffffffffffff1602179055508360ce60006101000a81548173ffffffffffffffffffffffffffffffffffffffff021916908373ffffffffffffffffffffffffffffffffffffffff1602179055508260cf60006101000a81548173ffffffffffffffffffffffffffffffffffffffff021916908373ffffffffffffffffffffffffffffffffffffffff1602179055508160c981905550610e47611686565b610e4f6116d8565b610e57611729565b610e5f611782565b8015610eb85760008060016101000a81548160ff0219169083151502179055507f7f26b83ff96e1f2b6a682f133852f6798a09c465da95921460cefb38474024986001604051610eaf9190612815565b60405180910390a15b5050505050565b60d16020528060005260406000206000915090505481565b60d06020528060005260406000206000915090505481565b610ef76114c8565b73ffffffffffffffffffffffffffffffffffffffff16610f15610d15565b73ffffffffffffffffffffffffffffffffffffffff1614610f6b576040517f08c379a0000000000000000000000000000000000000000000000000000000008152600401610f6290612972565b60405180910390fd5b600073ffffffffffffffffffffffffffffffffffffffff168173ffffffffffffffffffffffffffffffffffffffff161415610fdb576040517f08c379a0000000000000000000000000000000000000000000000000000000008152600401610fd290612852565b60405180910390fd5b610fe4816114d0565b50565b60ce60009054906101000a900473ffffffffffffffffffffffffffffffffffffffff1681565b6000611018336117d3565b9050600081111561116f5760cd60009054906101000a900473ffffffffffffffffffffffffffffffffffffffff1673ffffffffffffffffffffffffffffffffffffffff1663a9059cbb33836040518363ffffffff1660e01b815260040161108092919061279b565b602060405180830381600087803b15801561109a57600080fd5b505af11580156110ae573d6000803e3d6000fd5b505050506040513d601f19601f820116820180604052508101906110d29190612352565b506111288160d260003373ffffffffffffffffffffffffffffffffffffffff1673ffffffffffffffffffffffffffffffffffffffff168152602001908152602001600020600201546111b990919063ffffffff16565b60d260003373ffffffffffffffffffffffffffffffffffffffff1673ffffffffffffffffffffffffffffffffffffffff168152602001908152602001600020600201819055505b4260d260003373ffffffffffffffffffffffffffffffffffffffff1673ffffffffffffffffffffffffffffffffffffffff1681526020019081526020016000206003018190555050565b600081836111c79190612ada565b905092915050565b60006111f7836000018373ffffffffffffffffffffffffffffffffffffffff1660001b611ba4565b905092915050565b6000611227836000018373ffffffffffffffffffffffffffffffffffffffff1660001b611bc7565b905092915050565b6000818361123d9190612bbb565b905092915050565b600061126d836000018373ffffffffffffffffffffffffffffffffffffffff1660001b611c37565b905092915050565b60006112a37f360894a13ba1a3210667c828492db98dca3e2076cc3735a920a3ca505d382bbc60001b611dbd565b60000160009054906101000a900473ffffffffffffffffffffffffffffffffffffffff16905090565b6112d46114c8565b73ffffffffffffffffffffffffffffffffffffffff166112f2610d15565b73ffffffffffffffffffffffffffffffffffffffff1614611348576040517f08c379a000000000000000000000000000000000000000000000000000000000815260040161133f90612972565b60405180910390fd5b50565b6113777f4910fdfa16fed3260ed0e7147f7cc6da11a60208b5b9406d12a635614ffd914360001b611dc7565b60000160009054906101000a900460ff161561139b5761139683611dd1565b6114c3565b8273ffffffffffffffffffffffffffffffffffffffff166352d1902d6040518163ffffffff1660e01b815260040160206040518083038186803b1580156113e157600080fd5b505afa92505050801561141257506040513d601f19601f8201168201806040525081019061140f919061237b565b60015b611451576040517f08c379a000000000000000000000000000000000000000000000000000000000815260040161144890612932565b60405180910390fd5b7f360894a13ba1a3210667c828492db98dca3e2076cc3735a920a3ca505d382bbc60001b81146114b6576040517f08c379a00000000000000000000000000000000000000000000000000000000081526004016114ad906128f2565b60405180910390fd5b506114c2838383611e8a565b5b505050565b600033905090565b6000603360009054906101000a900473ffffffffffffffffffffffffffffffffffffffff16905081603360006101000a81548173ffffffffffffffffffffffffffffffffffffffff021916908373ffffffffffffffffffffffffffffffffffffffff1602179055508173ffffffffffffffffffffffffffffffffffffffff168173ffffffffffffffffffffffffffffffffffffffff167f8be0079c531659141344cd1fd0a4f28419497f9722a3daafe3b4186f6b6457e060405160405180910390a35050565b60008060019054906101000a900460ff161561160d5760018260ff161480156115c557506115c330611eb6565b155b611604576040517f08c379a00000000000000000000000000000000000000000000000000000000081526004016115fb90612912565b60405180910390fd5b60009050611681565b8160ff1660008054906101000a900460ff1660ff1610611662576040517f08c379a000000000000000000000000000000000000000000000000000000000815260040161165990612912565b60405180910390fd5b816000806101000a81548160ff021916908360ff160217905550600190505b919050565b6101f460d06000808152602001908152602001600020819055506103e860d0600060018152602001908152602001600020819055506105dc60d060006002815260200190815260200160002081905550565b60c860d16000808152602001908152602001600020819055506101f460d1600060018152602001908152602001600020819055506103e860d160006002815260200190815260200160002081905550565b600060019054906101000a900460ff16611778576040517f08c379a000000000000000000000000000000000000000000000000000000000815260040161176f906129b2565b60405180910390fd5b611780611ed9565b565b600060019054906101000a900460ff166117d1576040517f08c379a00000000000000000000000000000000000000000000000000000000081526004016117c8906129b2565b60405180910390fd5b565b60006117e98260cb6111cf90919063ffffffff16565b6117f65760009050611b9f565b600060d260008473ffffffffffffffffffffffffffffffffffffffff1673ffffffffffffffffffffffffffffffffffffffff16815260200190815260200160002060000154141561184a5760009050611b9f565b60006118a160d260008573ffffffffffffffffffffffffffffffffffffffff1673ffffffffffffffffffffffffffffffffffffffff168152602001908152602001600020600301544261122f90919063ffffffff16565b9050600060d260008573ffffffffffffffffffffffffffffffffffffffff1673ffffffffffffffffffffffffffffffffffffffff168152602001908152602001600020600001549050600061191c6305f5e10061190e6118ff611f3a565b85611fea90919063ffffffff16565b61200090919063ffffffff16565b9050600061197761070860d260008973ffffffffffffffffffffffffffffffffffffffff1673ffffffffffffffffffffffffffffffffffffffff168152602001908152602001600020600101546111b990919063ffffffff16565b42116119985760d06000808152602001908152602001600020549050611aa4565b6119ef612a3060d260008973ffffffffffffffffffffffffffffffffffffffff1673ffffffffffffffffffffffffffffffffffffffff168152602001908152602001600020600101546111b990919063ffffffff16565b4211611a115760d0600060018152602001908152602001600020549050611aa3565b611a6861558c60d260008973ffffffffffffffffffffffffffffffffffffffff1673ffffffffffffffffffffffffffffffffffffffff168152602001908152602001600020600101546111b990919063ffffffff16565b4211611a8a5760d0600060028152602001908152602001600020549050611aa2565b60d06000600281526020019081526020016000205490505b5b5b60648210611ad957611ad260d1600080815260200190815260200160002054826111b990919063ffffffff16565b9050611b45565b6101f48210611b1057611b0960d160006001815260200190815260200160002054826111b990919063ffffffff16565b9050611b44565b6103e88210611b4357611b4060d160006002815260200190815260200160002054826111b990919063ffffffff16565b90505b5b5b6000611b94612710611b8660c954611b7889611b6a888b611fea90919063ffffffff16565b611fea90919063ffffffff16565b61200090919063ffffffff16565b61200090919063ffffffff16565b905080955050505050505b919050565b600080836001016000848152602001908152602001600020541415905092915050565b6000611bd38383611ba4565b611c2c578260000182908060018154018082558091505060019003906000526020600020016000909190919091505582600001805490508360010160008481526020019081526020016000208190555060019050611c31565b600090505b92915050565b60008083600101600084815260200190815260200160002054905060008114611db1576000600182611c699190612bbb565b9050600060018660000180549050611c819190612bbb565b9050818114611d3c576000866000018281548110611cc8577f4e487b7100000000000000000000000000000000000000000000000000000000600052603260045260246000fd5b9060005260206000200154905080876000018481548110611d12577f4e487b7100000000000000000000000000000000000000000000000000000000600052603260045260246000fd5b90600052602060002001819055508387600101600083815260200190815260200160002081905550505b85600001805480611d76577f4e487b7100000000000000000000000000000000000000000000000000000000600052603160045260246000fd5b600190038181906000526020600020016000905590558560010160008681526020019081526020016000206000905560019350505050611db7565b60009150505b92915050565b6000819050919050565b6000819050919050565b611dda81611eb6565b611e19576040517f08c379a0000000000000000000000000000000000000000000000000000000008152600401611e1090612952565b60405180910390fd5b80611e467f360894a13ba1a3210667c828492db98dca3e2076cc3735a920a3ca505d382bbc60001b611dbd565b60000160006101000a81548173ffffffffffffffffffffffffffffffffffffffff021916908373ffffffffffffffffffffffffffffffffffffffff16021790555050565b611e9383612016565b600082511180611ea05750805b15611eb157611eaf8383612065565b505b505050565b6000808273ffffffffffffffffffffffffffffffffffffffff163b119050919050565b600060019054906101000a900460ff16611f28576040517f08c379a0000000000000000000000000000000000000000000000000000000008152600401611f1f906129b2565b60405180910390fd5b611f38611f336114c8565b6114d0565b565b60008060cf60009054906101000a900473ffffffffffffffffffffffffffffffffffffffff1673ffffffffffffffffffffffffffffffffffffffff1663feaf968c6040518163ffffffff1660e01b815260040160a06040518083038186803b158015611fa557600080fd5b505afa158015611fb9573d6000803e3d6000fd5b505050506040513d601f19601f82011682018060405250810190611fdd9190612430565b5050509150508091505090565b60008183611ff89190612b61565b905092915050565b6000818361200e9190612b30565b905092915050565b61201f81611dd1565b8073ffffffffffffffffffffffffffffffffffffffff167fbc7cd75a20ee27fd9adebab32041f755214dbc6bffa90cc0225b39da2e5c2d3b60405160405180910390a250565b606061207083611eb6565b6120af576040517f08c379a00000000000000000000000000000000000000000000000000000000081526004016120a690612992565b60405180910390fd5b6000808473ffffffffffffffffffffffffffffffffffffffff16846040516120d79190612732565b600060405180830381855af49150503d8060008114612112576040519150601f19603f3d011682016040523d82523d6000602084013e612117565b606091505b509150915061213f828260405180606001604052806027815260200161329360279139612149565b9250505092915050565b60608315612159578290506121a9565b60008351111561216c5782518084602001fd5b816040517f08c379a00000000000000000000000000000000000000000000000000000000081526004016121a09190612830565b60405180910390fd5b9392505050565b60006121c36121be84612a77565b612a52565b9050828152602081018484840111156121db57600080fd5b6121e6848285612cec565b509392505050565b6000813590506121fd816131da565b92915050565b600081519050612212816131f1565b92915050565b60008151905061222781613208565b92915050565b600082601f83011261223e57600080fd5b813561224e8482602086016121b0565b91505092915050565b6000813590506122668161321f565b92915050565b60008135905061227b81613236565b92915050565b6000815190506122908161324d565b92915050565b6000813590506122a581613264565b92915050565b6000815190506122ba81613264565b92915050565b6000815190506122cf8161327b565b92915050565b6000602082840312156122e757600080fd5b60006122f5848285016121ee565b91505092915050565b6000806040838503121561231157600080fd5b600061231f858286016121ee565b925050602083013567ffffffffffffffff81111561233c57600080fd5b6123488582860161222d565b9150509250929050565b60006020828403121561236457600080fd5b600061237284828501612203565b91505092915050565b60006020828403121561238d57600080fd5b600061239b84828501612218565b91505092915050565b600080600080608085870312156123ba57600080fd5b60006123c88782880161226c565b94505060206123d98782880161226c565b93505060406123ea87828801612257565b92505060606123fb87828801612296565b91505092959194509250565b60006020828403121561241957600080fd5b600061242784828501612296565b91505092915050565b600080600080600060a0868803121561244857600080fd5b6000612456888289016122c0565b955050602061246788828901612281565b9450506040612478888289016122ab565b9350506060612489888289016122ab565b925050608061249a888289016122c0565b9150509295509295909350565b6124b081612bef565b82525050565b6124bf81612c0d565b82525050565b60006124d082612aa8565b6124da8185612abe565b93506124ea818560208601612cfb565b80840191505092915050565b6124ff81612c92565b82525050565b61250e81612cb6565b82525050565b61251d81612cda565b82525050565b600061252e82612ab3565b6125388185612ac9565b9350612548818560208601612cfb565b61255181612dec565b840191505092915050565b6000612569602683612ac9565b915061257482612dfd565b604082019050919050565b600061258c602c83612ac9565b915061259782612e4c565b604082019050919050565b60006125af602c83612ac9565b91506125ba82612e9b565b604082019050919050565b60006125d2604083612ac9565b91506125dd82612eea565b604082019050919050565b60006125f5603883612ac9565b915061260082612f39565b604082019050919050565b6000612618602983612ac9565b915061262382612f88565b604082019050919050565b600061263b602e83612ac9565b915061264682612fd7565b604082019050919050565b600061265e602e83612ac9565b915061266982613026565b604082019050919050565b6000612681602d83612ac9565b915061268c82613075565b604082019050919050565b60006126a4602083612ac9565b91506126af826130c4565b602082019050919050565b60006126c7602683612ac9565b91506126d2826130ed565b604082019050919050565b60006126ea602b83612ac9565b91506126f58261313c565b604082019050919050565b600061270d603683612ac9565b91506127188261318b565b604082019050919050565b61272c81612c65565b82525050565b600061273e82846124c5565b915081905092915050565b600060208201905061275e60008301846124a7565b92915050565b600060608201905061277960008301866124a7565b61278660208301856124a7565b6127936040830184612723565b949350505050565b60006040820190506127b060008301856124a7565b6127bd6020830184612723565b9392505050565b60006020820190506127d960008301846124b6565b92915050565b60006020820190506127f460008301846124f6565b92915050565b600060208201905061280f6000830184612505565b92915050565b600060208201905061282a6000830184612514565b92915050565b6000602082019050818103600083015261284a8184612523565b905092915050565b6000602082019050818103600083015261286b8161255c565b9050919050565b6000602082019050818103600083015261288b8161257f565b9050919050565b600060208201905081810360008301526128ab816125a2565b9050919050565b600060208201905081810360008301526128cb816125c5565b9050919050565b600060208201905081810360008301526128eb816125e8565b9050919050565b6000602082019050818103600083015261290b8161260b565b9050919050565b6000602082019050818103600083015261292b8161262e565b9050919050565b6000602082019050818103600083015261294b81612651565b9050919050565b6000602082019050818103600083015261296b81612674565b9050919050565b6000602082019050818103600083015261298b81612697565b9050919050565b600060208201905081810360008301526129ab816126ba565b9050919050565b600060208201905081810360008301526129cb816126dd565b9050919050565b600060208201905081810360008301526129eb81612700565b9050919050565b6000602082019050612a076000830184612723565b92915050565b6000608082019050612a226000830187612723565b612a2f6020830186612723565b612a3c6040830185612723565b612a496060830184612723565b95945050505050565b6000612a5c612a6d565b9050612a688282612d2e565b919050565b6000604051905090565b600067ffffffffffffffff821115612a9257612a91612dbd565b5b612a9b82612dec565b9050602081019050919050565b600081519050919050565b600081519050919050565b600081905092915050565b600082825260208201905092915050565b6000612ae582612c65565b9150612af083612c65565b9250827fffffffffffffffffffffffffffffffffffffffffffffffffffffffffffffffff03821115612b2557612b24612d5f565b5b828201905092915050565b6000612b3b82612c65565b9150612b4683612c65565b925082612b5657612b55612d8e565b5b828204905092915050565b6000612b6c82612c65565b9150612b7783612c65565b9250817fffffffffffffffffffffffffffffffffffffffffffffffffffffffffffffffff0483118215151615612bb057612baf612d5f565b5b828202905092915050565b6000612bc682612c65565b9150612bd183612c65565b925082821015612be457612be3612d5f565b5b828203905092915050565b6000612bfa82612c45565b9050919050565b60008115159050919050565b6000819050919050565b6000612c2282612bef565b9050919050565b6000612c3482612bef565b9050919050565b6000819050919050565b600073ffffffffffffffffffffffffffffffffffffffff82169050919050565b6000819050919050565b600060ff82169050919050565b600069ffffffffffffffffffff82169050919050565b6000612c9d82612ca4565b9050919050565b6000612caf82612c45565b9050919050565b6000612cc182612cc8565b9050919050565b6000612cd382612c45565b9050919050565b6000612ce582612c6f565b9050919050565b82818337600083830152505050565b60005b83811015612d19578082015181840152602081019050612cfe565b83811115612d28576000848401525b50505050565b612d3782612dec565b810181811067ffffffffffffffff82111715612d5657612d55612dbd565b5b80604052505050565b7f4e487b7100000000000000000000000000000000000000000000000000000000600052601160045260246000fd5b7f4e487b7100000000000000000000000000000000000000000000000000000000600052601260045260246000fd5b7f4e487b7100000000000000000000000000000000000000000000000000000000600052604160045260246000fd5b6000601f19601f8301169050919050565b7f4f776e61626c653a206e6577206f776e657220697320746865207a65726f206160008201527f6464726573730000000000000000000000000000000000000000000000000000602082015250565b7f46756e6374696f6e206d7573742062652063616c6c6564207468726f7567682060008201527f64656c656761746563616c6c0000000000000000000000000000000000000000602082015250565b7f46756e6374696f6e206d7573742062652063616c6c6564207468726f7567682060008201527f6163746976652070726f78790000000000000000000000000000000000000000602082015250565b7f776974686472617746726f6d506f6f6c3a3a2063616e206e6f7420776974686460008201527f726177206d6f7265207468616e20796f7572207374616b656420616d6f756e74602082015250565b7f555550535570677261646561626c653a206d757374206e6f742062652063616c60008201527f6c6564207468726f7567682064656c656761746563616c6c0000000000000000602082015250565b7f45524331393637557067726164653a20756e737570706f727465642070726f7860008201527f6961626c65555549440000000000000000000000000000000000000000000000602082015250565b7f496e697469616c697a61626c653a20636f6e747261637420697320616c72656160008201527f647920696e697469616c697a6564000000000000000000000000000000000000602082015250565b7f45524331393637557067726164653a206e657720696d706c656d656e7461746960008201527f6f6e206973206e6f742055555053000000000000000000000000000000000000602082015250565b7f455243313936373a206e657720696d706c656d656e746174696f6e206973206e60008201527f6f74206120636f6e747261637400000000000000000000000000000000000000602082015250565b7f4f776e61626c653a2063616c6c6572206973206e6f7420746865206f776e6572600082015250565b7f416464726573733a2064656c65676174652063616c6c20746f206e6f6e2d636f60008201527f6e74726163740000000000000000000000000000000000000000000000000000602082015250565b7f496e697469616c697a61626c653a20636f6e7472616374206973206e6f74206960008201527f6e697469616c697a696e67000000000000000000000000000000000000000000602082015250565b7f6465706f736974537461626c65436f696e3a3a20616d6f756e742073686f756c60008201527f642062652067726561746572207468616e207a65726f00000000000000000000602082015250565b6131e381612bef565b81146131ee57600080fd5b50565b6131fa81612c01565b811461320557600080fd5b50565b61321181612c0d565b811461321c57600080fd5b50565b61322881612c17565b811461323357600080fd5b50565b61323f81612c29565b811461324a57600080fd5b50565b61325681612c3b565b811461326157600080fd5b50565b61326d81612c65565b811461327857600080fd5b50565b61328481612c7c565b811461328f57600080fd5b5056fe416464726573733a206c6f772d6c6576656c2064656c65676174652063616c6c206661696c6564a26469706673582212202d595e618b379320434458a16be29b6b874d4d4b363c90ca7f54aa37cbe6625b64736f6c63430008040033",
  "linkReferences": {},
  "deployedLinkReferences": {}
}